{
  "contractName": "VCG_operator",
  "abi": [
    {
      "constant": true,
      "inputs": [
        {
          "name": "",
          "type": "uint256"
        }
      ],
      "name": "proposalBidCounter",
      "outputs": [
        {
          "name": "",
          "type": "int256"
        }
      ],
      "payable": false,
      "stateMutability": "view",
      "type": "function"
    },
    {
      "constant": true,
      "inputs": [
        {
          "name": "",
          "type": "address"
        },
        {
          "name": "",
          "type": "uint256"
        }
      ],
      "name": "addressProposals",
      "outputs": [
        {
          "name": "",
          "type": "uint256"
        }
      ],
      "payable": false,
      "stateMutability": "view",
      "type": "function"
    },
    {
      "constant": true,
      "inputs": [
        {
          "name": "",
          "type": "uint256"
        }
      ],
      "name": "electorateList",
      "outputs": [
        {
          "name": "electorateName",
          "type": "string"
        },
        {
          "name": "listComplete",
          "type": "bool"
        },
        {
          "name": "ownedList",
          "type": "bool"
        },
        {
          "name": "electorateCreator",
          "type": "address"
        },
        {
          "name": "maxNoShows",
          "type": "uint256"
        },
        {
          "name": "perMemberBuyIn",
          "type": "uint256"
        },
        {
          "name": "memberCount",
          "type": "int256"
        }
      ],
      "payable": false,
      "stateMutability": "view",
      "type": "function"
    },
    {
      "constant": true,
      "inputs": [
        {
          "name": "",
          "type": "address"
        }
      ],
      "name": "outstandingDues",
      "outputs": [
        {
          "name": "",
          "type": "int256"
        }
      ],
      "payable": false,
      "stateMutability": "view",
      "type": "function"
    },
    {
      "constant": true,
      "inputs": [
        {
          "name": "",
          "type": "uint256"
        }
      ],
      "name": "proposalElectorateMap",
      "outputs": [
        {
          "name": "",
          "type": "uint256"
        }
      ],
      "payable": false,
      "stateMutability": "view",
      "type": "function"
    },
    {
      "constant": true,
      "inputs": [
        {
          "name": "",
          "type": "address"
        }
      ],
      "name": "postedFunds",
      "outputs": [
        {
          "name": "",
          "type": "int256"
        }
      ],
      "payable": false,
      "stateMutability": "view",
      "type": "function"
    },
    {
      "constant": true,
      "inputs": [
        {
          "name": "",
          "type": "address"
        }
      ],
      "name": "paidDues",
      "outputs": [
        {
          "name": "",
          "type": "int256"
        }
      ],
      "payable": false,
      "stateMutability": "view",
      "type": "function"
    },
    {
      "constant": true,
      "inputs": [
        {
          "name": "",
          "type": "uint256"
        },
        {
          "name": "",
          "type": "address"
        }
      ],
      "name": "settleUpRecords",
      "outputs": [
        {
          "name": "",
          "type": "bool"
        }
      ],
      "payable": false,
      "stateMutability": "view",
      "type": "function"
    },
    {
      "constant": true,
      "inputs": [
        {
          "name": "",
          "type": "address"
        }
      ],
      "name": "outstandingTax",
      "outputs": [
        {
          "name": "",
          "type": "int256"
        }
      ],
      "payable": false,
      "stateMutability": "view",
      "type": "function"
    },
    {
      "constant": true,
      "inputs": [
        {
          "name": "",
          "type": "uint256"
        }
      ],
      "name": "revealedBids",
      "outputs": [
        {
          "name": "",
          "type": "int256"
        }
      ],
      "payable": false,
      "stateMutability": "view",
      "type": "function"
    },
    {
      "constant": true,
      "inputs": [
        {
          "name": "",
          "type": "uint256"
        }
      ],
      "name": "proposalList",
      "outputs": [
        {
          "name": "proposalDescription",
          "type": "string"
        },
        {
          "name": "electorateID",
          "type": "uint256"
        },
        {
          "name": "neededAmount",
          "type": "int256"
        },
        {
          "name": "fairAmount",
          "type": "int256"
        },
        {
          "name": "numberOfVotes",
          "type": "int256"
        },
        {
          "name": "postedTime",
          "type": "uint256"
        },
        {
          "name": "bidDeadline",
          "type": "uint256"
        },
        {
          "name": "revealDeadline",
          "type": "uint256"
        },
        {
          "name": "outcomePassed",
          "type": "bool"
        },
        {
          "name": "resolved",
          "type": "bool"
        },
        {
          "name": "beneficiaryAddress",
          "type": "address"
        },
        {
          "name": "shortfallTallier",
          "type": "int256"
        },
        {
          "name": "shortBidderCount",
          "type": "uint256"
        }
      ],
      "payable": false,
      "stateMutability": "view",
      "type": "function"
    },
    {
      "constant": true,
      "inputs": [
        {
          "name": "",
          "type": "address"
        }
      ],
      "name": "retainedTax",
      "outputs": [
        {
          "name": "",
          "type": "int256"
        }
      ],
      "payable": false,
      "stateMutability": "view",
      "type": "function"
    },
    {
      "constant": true,
      "inputs": [
        {
          "name": "",
          "type": "uint256"
        },
        {
          "name": "",
          "type": "uint256"
        }
      ],
      "name": "electorateProposals",
      "outputs": [
        {
          "name": "",
          "type": "uint256"
        }
      ],
      "payable": false,
      "stateMutability": "view",
      "type": "function"
    },
    {
      "constant": true,
      "inputs": [
        {
          "name": "",
          "type": "uint256"
        },
        {
          "name": "",
          "type": "address"
        }
      ],
      "name": "noShowCount",
      "outputs": [
        {
          "name": "",
          "type": "uint256"
        }
      ],
      "payable": false,
      "stateMutability": "view",
      "type": "function"
    },
    {
      "constant": true,
      "inputs": [
        {
          "name": "",
          "type": "address"
        }
      ],
      "name": "fundsLockedUnlessZero",
      "outputs": [
        {
          "name": "",
          "type": "uint32"
        }
      ],
      "payable": false,
      "stateMutability": "view",
      "type": "function"
    },
    {
      "payable": true,
      "stateMutability": "payable",
      "type": "fallback"
    },
    {
      "anonymous": false,
      "inputs": [
        {
          "indexed": false,
          "name": "electorateName",
          "type": "string"
        },
        {
          "indexed": false,
          "name": "electorateID",
          "type": "uint256"
        }
      ],
      "name": "electorateCreated",
      "type": "event"
    },
    {
      "anonymous": false,
      "inputs": [
        {
          "indexed": false,
          "name": "electorateName",
          "type": "string"
        },
        {
          "indexed": false,
          "name": "electorateID",
          "type": "uint256"
        },
        {
          "indexed": false,
          "name": "proposalID",
          "type": "uint256"
        },
        {
          "indexed": false,
          "name": "hashedBid",
          "type": "bytes32"
        }
      ],
      "name": "blindBidSubmitted",
      "type": "event"
    },
    {
      "constant": false,
      "inputs": [
        {
          "name": "_proposalDescription",
          "type": "string"
        },
        {
          "name": "_neededAmount",
          "type": "int256"
        },
        {
          "name": "_electorateID",
          "type": "uint256"
        },
        {
          "name": "_bidDeadline",
          "type": "uint256"
        },
        {
          "name": "_revealDeadline",
          "type": "uint256"
        },
        {
          "name": "_beneficiaryAddress",
          "type": "address"
        }
      ],
      "name": "createProposal",
      "outputs": [],
      "payable": false,
      "stateMutability": "nonpayable",
      "type": "function"
    },
    {
      "constant": false,
      "inputs": [
        {
          "name": "_electorateName",
          "type": "string"
        },
        {
          "name": "_ownedList",
          "type": "bool"
        }
      ],
      "name": "createElectorate",
      "outputs": [
        {
          "name": "",
          "type": "uint256"
        }
      ],
      "payable": false,
      "stateMutability": "nonpayable",
      "type": "function"
    },
    {
      "constant": false,
      "inputs": [
        {
          "name": "_electorateID",
          "type": "uint256"
        },
        {
          "name": "_voterToAdd",
          "type": "address"
        }
      ],
      "name": "addToElectorate",
      "outputs": [
        {
          "name": "success",
          "type": "bool"
        }
      ],
      "payable": false,
      "stateMutability": "nonpayable",
      "type": "function"
    },
    {
      "constant": false,
      "inputs": [
        {
          "name": "_electorateID",
          "type": "uint256"
        }
      ],
      "name": "closeElectorate",
      "outputs": [
        {
          "name": "success",
          "type": "bool"
        }
      ],
      "payable": false,
      "stateMutability": "nonpayable",
      "type": "function"
    },
    {
      "constant": false,
      "inputs": [
        {
          "name": "_proposalID",
          "type": "uint256"
        },
        {
          "name": "_hashedBid",
          "type": "bytes32"
        }
      ],
      "name": "conductBlindVote",
      "outputs": [
        {
          "name": "voteClosed",
          "type": "bool"
        }
      ],
      "payable": true,
      "stateMutability": "payable",
      "type": "function"
    },
    {
      "constant": false,
      "inputs": [
        {
          "name": "_proposalID",
          "type": "uint256"
        }
      ],
      "name": "conductNonBlindVote",
      "outputs": [
        {
          "name": "voteClosed",
          "type": "bool"
        }
      ],
      "payable": true,
      "stateMutability": "payable",
      "type": "function"
    },
    {
      "constant": true,
      "inputs": [],
      "name": "getKBal",
      "outputs": [
        {
          "name": "_money",
          "type": "uint256"
        }
      ],
      "payable": false,
      "stateMutability": "view",
      "type": "function"
    },
    {
      "constant": false,
      "inputs": [
        {
          "name": "_propID",
          "type": "uint256"
        },
        {
          "name": "_bidReveal",
          "type": "int256"
        }
      ],
      "name": "revealBid",
      "outputs": [
        {
          "name": "",
          "type": "bool"
        },
        {
          "name": "",
          "type": "uint256"
        }
      ],
      "payable": true,
      "stateMutability": "payable",
      "type": "function"
    },
    {
      "constant": false,
      "inputs": [
        {
          "name": "__propID",
          "type": "uint256"
        }
      ],
      "name": "closeBiddingAtDeadline",
      "outputs": [
        {
          "name": "",
          "type": "bool"
        }
      ],
      "payable": false,
      "stateMutability": "nonpayable",
      "type": "function"
    },
    {
      "constant": false,
      "inputs": [
        {
          "name": "__propID",
          "type": "uint256"
        }
      ],
      "name": "closeRevealingAtDeadline",
      "outputs": [
        {
          "name": "",
          "type": "bool"
        }
      ],
      "payable": false,
      "stateMutability": "nonpayable",
      "type": "function"
    },
    {
      "constant": false,
      "inputs": [
        {
          "name": "_deposit",
          "type": "uint256"
        }
      ],
      "name": "depositEtherToContract",
      "outputs": [
        {
          "name": "",
          "type": "uint256"
        }
      ],
      "payable": true,
      "stateMutability": "payable",
      "type": "function"
    },
    {
      "constant": false,
      "inputs": [
        {
          "name": "_withdrawal",
          "type": "int256"
        }
      ],
      "name": "withdrawEtherFromContract",
      "outputs": [
        {
          "name": "",
          "type": "uint256"
        }
      ],
      "payable": true,
      "stateMutability": "payable",
      "type": "function"
    },
    {
      "constant": true,
      "inputs": [],
      "name": "checkEtherSentToContract",
      "outputs": [
        {
          "name": "",
          "type": "int256"
        }
      ],
      "payable": false,
      "stateMutability": "view",
      "type": "function"
    },
    {
      "constant": true,
      "inputs": [
        {
          "name": "_electorateID",
          "type": "uint256"
        },
        {
          "name": "_index",
          "type": "uint256"
        }
      ],
      "name": "electorateMemberGetter",
      "outputs": [
        {
          "name": "",
          "type": "address[]"
        },
        {
          "name": "",
          "type": "address"
        }
      ],
      "payable": false,
      "stateMutability": "view",
      "type": "function"
    },
    {
      "constant": true,
      "inputs": [
        {
          "name": "_electorateID",
          "type": "uint256"
        }
      ],
      "name": "panelProposalsGetter",
      "outputs": [
        {
          "name": "",
          "type": "uint256[]"
        }
      ],
      "payable": false,
      "stateMutability": "view",
      "type": "function"
    }
  ],
  "bytecode": "0x608060405234801561001057600080fd5b50614255806100206000396000f300608060405260043610610180576000357c0100000000000000000000000000000000000000000000000000000000900463ffffffff1680630dd3cab4146101cf57806314e6b920146101fa5780632307721314610283578063291d1636146102b75780632dc657811461031c57806332b0ba7314610365578063386ab010146103aa5780633ce5c7db1461042c57806346581e9a1461046d57806347d77930146104ce57806353c4d372146105d2578063558afb7e146106295780635746279e1461066e5780635e36aca2146106a6578063615417d5146106ec578063676f5b611461072d5780637d829fc8146107845780639301c4bf14610835578063a024bc7e14610869578063a0b57d53146108c0578063a12645c714610905578063a48139c61461096a578063a5ab9b6514610a29578063ae05377d14610a80578063b90bbe4114610ac1578063c6311e3f14610aec578063dc18fc5c14610c1a578063e9aec99014610c71578063ed4de8b514610cbc578063fb3b580514610d1d575b34600560003373ffffffffffffffffffffffffffffffffffffffff1673ffffffffffffffffffffffffffffffffffffffff16815260200190815260200160002060008282540192505081905550005b3480156101db57600080fd5b506101e4610d80565b6040518082815260200191505060405180910390f35b34801561020657600080fd5b5061026d600480360381019080803590602001908201803590602001908080601f0160208091040260200160405190810160405280939291908181526020018383808284378201915050505050509192919290803515159060200190929190505050610e22565b6040518082815260200191505060405180910390f35b6102a16004803603810190808035906020019092919050505061108f565b6040518082815260200191505060405180910390f35b3480156102c357600080fd5b5061030260048036038101908080359060200190929190803573ffffffffffffffffffffffffffffffffffffffff1690602001909291905050506111ed565b604051808215151515815260200191505060405180910390f35b61034460048036038101908080359060200190929190803590602001909291905050506113d1565b60405180831515151581526020018281526020019250505060405180910390f35b34801561037157600080fd5b506103906004803603810190808035906020019092919050505061191a565b604051808215151515815260200191505060405180910390f35b3480156103b657600080fd5b506103d560048036038101908080359060200190929190505050611921565b6040518080602001828103825283818151815260200191508051906020019060200280838360005b838110156104185780820151818401526020810190506103fd565b505050509050019250505060405180910390f35b34801561043857600080fd5b506104576004803603810190808035906020019092919050505061198c565b6040518082815260200191505060405180910390f35b34801561047957600080fd5b506104b8600480360381019080803573ffffffffffffffffffffffffffffffffffffffff169060200190929190803590602001909291905050506119a4565b6040518082815260200191505060405180910390f35b3480156104da57600080fd5b506104f9600480360381019080803590602001909291905050506119d4565b604051808060200188151515158152602001871515151581526020018673ffffffffffffffffffffffffffffffffffffffff1673ffffffffffffffffffffffffffffffffffffffff168152602001858152602001848152602001838152602001828103825289818151815260200191508051906020019080838360005b83811015610591578082015181840152602081019050610576565b50505050905090810190601f1680156105be5780820380516001836020036101000a031916815260200191505b509850505050505050505060405180910390f35b3480156105de57600080fd5b50610613600480360381019080803573ffffffffffffffffffffffffffffffffffffffff169060200190929190505050611af7565b6040518082815260200191505060405180910390f35b34801561063557600080fd5b5061065460048036038101908080359060200190929190505050611b0f565b604051808215151515815260200191505060405180910390f35b61068c60048036038101908080359060200190929190505050611bd5565b604051808215151515815260200191505060405180910390f35b6106d2600480360381019080803590602001909291908035600019169060200190929190505050611f39565b604051808215151515815260200191505060405180910390f35b3480156106f857600080fd5b5061071760048036038101908080359060200190929190505050612595565b6040518082815260200191505060405180910390f35b34801561073957600080fd5b5061076e600480360381019080803573ffffffffffffffffffffffffffffffffffffffff1690602001909291905050506125ad565b6040518082815260200191505060405180910390f35b34801561079057600080fd5b50610833600480360381019080803590602001908201803590602001908080601f016020809104026020016040519081016040528093929190818152602001838380828437820191505050505050919291929080359060200190929190803590602001909291908035906020019092919080359060200190929190803573ffffffffffffffffffffffffffffffffffffffff1690602001909291905050506125c5565b005b6108536004803603810190808035906020019092919050505061287a565b6040518082815260200191505060405180910390f35b34801561087557600080fd5b506108aa600480360381019080803573ffffffffffffffffffffffffffffffffffffffff1690602001909291905050506128ef565b6040518082815260200191505060405180910390f35b3480156108cc57600080fd5b506108eb60048036038101908080359060200190929190505050612907565b604051808215151515815260200191505060405180910390f35b34801561091157600080fd5b5061095060048036038101908080359060200190929190803573ffffffffffffffffffffffffffffffffffffffff16906020019092919050505061290e565b604051808215151515815260200191505060405180910390f35b34801561097657600080fd5b5061099f600480360381019080803590602001909291908035906020019092919050505061293d565b60405180806020018373ffffffffffffffffffffffffffffffffffffffff1673ffffffffffffffffffffffffffffffffffffffff168152602001828103825284818151815260200191508051906020019060200280838360005b83811015610a145780820151818401526020810190506109f9565b50505050905001935050505060405180910390f35b348015610a3557600080fd5b50610a6a600480360381019080803573ffffffffffffffffffffffffffffffffffffffff169060200190929190505050612a4b565b6040518082815260200191505060405180910390f35b348015610a8c57600080fd5b50610aab60048036038101908080359060200190929190505050612a63565b6040518082815260200191505060405180910390f35b348015610acd57600080fd5b50610ad6612a7b565b6040518082815260200191505060405180910390f35b348015610af857600080fd5b50610b1760048036038101908080359060200190929190505050612ac7565b60405180806020018e81526020018d81526020018c81526020018b81526020018a815260200189815260200188815260200187151515158152602001861515151581526020018573ffffffffffffffffffffffffffffffffffffffff1673ffffffffffffffffffffffffffffffffffffffff16815260200184815260200183815260200182810382528f818151815260200191508051906020019080838360005b83811015610bd3578082015181840152602081019050610bb8565b50505050905090810190601f168015610c005780820380516001836020036101000a031916815260200191505b509e50505050505050505050505050505060405180910390f35b348015610c2657600080fd5b50610c5b600480360381019080803573ffffffffffffffffffffffffffffffffffffffff169060200190929190505050612c0e565b6040518082815260200191505060405180910390f35b348015610c7d57600080fd5b50610ca66004803603810190808035906020019092919080359060200190929190505050612c26565b6040518082815260200191505060405180910390f35b348015610cc857600080fd5b50610d0760048036038101908080359060200190929190803573ffffffffffffffffffffffffffffffffffffffff169060200190929190505050612c56565b6040518082815260200191505060405180910390f35b348015610d2957600080fd5b50610d5e600480360381019080803573ffffffffffffffffffffffffffffffffffffffff169060200190929190505050612c7b565b604051808263ffffffff1663ffffffff16815260200191505060405180910390f35b600073__VCGLib1_______________________________636f9fb98a6040518163ffffffff167c010000000000000000000000000000000000000000000000000000000002815260040160206040518083038186803b158015610de257600080fd5b505af4158015610df6573d6000803e3d6000fd5b505050506040513d6020811015610e0c57600080fd5b8101908080519060200190929190505050905090565b6000610e2c613fd4565b8381600001819052508281604001901515908115158152505033816060019073ffffffffffffffffffffffffffffffffffffffff16908173ffffffffffffffffffffffffffffffffffffffff16815250506000604051908082528060200260200182016040528015610ead5781602001602082028038833980820191505090505b50816080018190525060008160e0018181525050600081908060018154018082558091505090600182039060005260206000209060070201600090919290919091506000820151816000019080519060200190610f0b929190614034565b5060208201518160010160006101000a81548160ff02191690831515021790555060408201518160010160016101000a81548160ff02191690831515021790555060608201518160010160026101000a81548173ffffffffffffffffffffffffffffffffffffffff021916908373ffffffffffffffffffffffffffffffffffffffff1602179055506080820151816002019080519060200190610faf9291906140b4565b5060a0820151816004015560c0820151816005015560e082015181600601555050507f9958e9533741a95b8b0fa0a3f7d1220a58693935aacb988582d90cca6fd94265846001600080549050036040518080602001838152602001828103825284818151815260200191508051906020019080838360005b83811015611042578082015181840152602081019050611027565b50505050905090810190601f16801561106f5780820380516001836020036101000a031916815260200191505b50935050505060405180910390a160016000805490500391505092915050565b600080600a60003373ffffffffffffffffffffffffffffffffffffffff1673ffffffffffffffffffffffffffffffffffffffff16815260200190815260200160002060009054906101000a900463ffffffff1663ffffffff161415156110f457600080fd5b600560003373ffffffffffffffffffffffffffffffffffffffff1673ffffffffffffffffffffffffffffffffffffffff16815260200190815260200160002054821315151561114257600080fd5b66038d7ea4c680008202600560003373ffffffffffffffffffffffffffffffffffffffff1673ffffffffffffffffffffffffffffffffffffffff168152602001908152602001600020600082825403925050819055503373ffffffffffffffffffffffffffffffffffffffff166108fc66038d7ea4c6800084029081150290604051600060405180830381858888f193505050501580156111e7573d6000803e3d6000fd5b50919050565b6000806000848154811015156111ff57fe5b90600052602060002090600702019050600115158160010160019054906101000a900460ff161515141561128c573373ffffffffffffffffffffffffffffffffffffffff168160010160029054906101000a900473ffffffffffffffffffffffffffffffffffffffff1673ffffffffffffffffffffffffffffffffffffffff1614151561128b57600080fd5b5b600015158160030160008573ffffffffffffffffffffffffffffffffffffffff1673ffffffffffffffffffffffffffffffffffffffff16815260200190815260200160002060009054906101000a900460ff1615151415156112ed57600080fd5b806002018390806001815401808255809150509060018203906000526020600020016000909192909190916101000a81548173ffffffffffffffffffffffffffffffffffffffff021916908373ffffffffffffffffffffffffffffffffffffffff1602179055505060018160030160008573ffffffffffffffffffffffffffffffffffffffff1673ffffffffffffffffffffffffffffffffffffffff16815260200190815260200160002060006101000a81548160ff0219169083151502179055508060060160008154809291906001019190505550600191508191505092915050565b6000806001848154811015156113e357fe5b90600052602060002090600f0201600b0160003373ffffffffffffffffffffffffffffffffffffffff1673ffffffffffffffffffffffffffffffffffffffff168152602001908152602001600020546000191683604051602001808281526020019150506040516020818303038152906040526040518082805190602001908083835b60208310151561148b5780518252602082019150602081019050602083039250611466565b6001836020036101000a038019825116818451168082178552505050505050905001915050604051809103902060001916141515611557576040517f08c379a000000000000000000000000000000000000000000000000000000000815260040180806020018281038252603b8152602001807f546869732062696420646f6573206e6f74206d6174636820796f757220626c6981526020017f6e64206269642e2020596f75206d61792074727920616761696e2e000000000081525060400191505060405180910390fd5b6000151560018581548110151561156a57fe5b90600052602060002090600f020160090160003373ffffffffffffffffffffffffffffffffffffffff1673ffffffffffffffffffffffffffffffffffffffff16815260200190815260200160002060009054906101000a900460ff161515141515611663576040517f08c379a000000000000000000000000000000000000000000000000000000000815260040180806020018281038252603a8152602001807f596f757220626c696e6420626964206f6e20746869732070726f706f73616c2081526020017f68617320616c7265616479206265656e2072657665616c65642e00000000000081525060400191505060405180910390fd5b82600560003373ffffffffffffffffffffffffffffffffffffffff1673ffffffffffffffffffffffffffffffffffffffff168152602001908152602001600020541215151561178c576040517f08c379a000000000000000000000000000000000000000000000000000000000815260040180806020018281038252607e8152602001807f596f75206d6179206e6f7420626964206d6f7265204574686572207468616e2081526020017f796f752068617665206465706f73697465642e20506c65617365206465706f7381526020017f6974206164646974696f6e616c20457468657220746f2074686520636f6e747281526020017f6163742c20616e64207468656e2072657665616c20796f7572204269642e000081525060800191505060405180910390fd5b66038d7ea4c6800083026001858154811015156117a557fe5b90600052602060002090600f0201600a0160003373ffffffffffffffffffffffffffffffffffffffff1673ffffffffffffffffffffffffffffffffffffffff1681526020019081526020016000206000828254019250508190555066038d7ea4c6800083026003600086815260200190815260200160002060008282540192505081905550600460008581526020019081526020016000206000815480929190600101919050555060018481548110151561185c57fe5b90600052602060002090600f020160040154600460008681526020019081526020016000205414156118935761189184612c9e565b505b600a60003373ffffffffffffffffffffffffffffffffffffffff1673ffffffffffffffffffffffffffffffffffffffff168152602001908152602001600020600081819054906101000a900463ffffffff16809291906001900391906101000a81548163ffffffff021916908363ffffffff16021790555050600184915091509250929050565b6000919050565b6060600e600083815260200190815260200160002080548060200260200160405190810160405280929190818152602001828054801561198057602002820191906000526020600020905b81548152602001906001019080831161196c575b50505050509050919050565b60036020528060005260406000206000915090505481565b600d602052816000526040600020818154811015156119bf57fe5b90600052602060002001600091509150505481565b6000818154811015156119e357fe5b9060005260206000209060070201600091509050806000018054600181600116156101000203166002900480601f016020809104026020016040519081016040528092919081815260200182805460018160011615610100020316600290048015611a8f5780601f10611a6457610100808354040283529160200191611a8f565b820191906000526020600020905b815481529060010190602001808311611a7257829003601f168201915b5050505050908060010160009054906101000a900460ff16908060010160019054906101000a900460ff16908060010160029054906101000a900473ffffffffffffffffffffffffffffffffffffffff16908060040154908060050154908060060154905087565b60096020528060005260406000206000915090505481565b600080600083815481101515611b2157fe5b90600052602060002090600702019050600115158160010160019054906101000a900460ff1615151415611bae573373ffffffffffffffffffffffffffffffffffffffff168160010160029054906101000a900473ffffffffffffffffffffffffffffffffffffffff1673ffffffffffffffffffffffffffffffffffffffff16141515611bad57600080fd5b5b60018160010160006101000a81548160ff0219169083151502179055506001915050919050565b600080600080600080339450869350349250600184815481101515611bf657fe5b90600052602060002090600f0201600101549150600082815481101515611c1957fe5b906000526020600020906007020160060154905060011515600083815481101515611c4057fe5b906000526020600020906007020160030160008773ffffffffffffffffffffffffffffffffffffffff1673ffffffffffffffffffffffffffffffffffffffff16815260200190815260200160002060009054906101000a900460ff161515141515611caa57600080fd5b60011515600083815481101515611cbd57fe5b906000526020600020906007020160010160009054906101000a900460ff161515141515611cea57600080fd5b60001515600185815481101515611cfd57fe5b90600052602060002090600f020160080160008773ffffffffffffffffffffffffffffffffffffffff1673ffffffffffffffffffffffffffffffffffffffff16815260200190815260200160002060009054906101000a900460ff161515141515611d6757600080fd5b60018085815481101515611d7757fe5b90600052602060002090600f020160080160008773ffffffffffffffffffffffffffffffffffffffff1673ffffffffffffffffffffffffffffffffffffffff16815260200190815260200160002060006101000a81548160ff021916908315150217905550600184815481101515611deb57fe5b90600052602060002090600f02016004016000815480929190600101919050555082600185815481101515611e1c57fe5b90600052602060002090600f0201600a0160003373ffffffffffffffffffffffffffffffffffffffff1673ffffffffffffffffffffffffffffffffffffffff1681526020019081526020016000206000828254019250508190555082600360008681526020019081526020016000206000828254019250508190555082600560003373ffffffffffffffffffffffffffffffffffffffff1673ffffffffffffffffffffffffffffffffffffffff1681526020019081526020016000206000828254019250508190555080600185815481101515611ef557fe5b90600052602060002090600f0201600401541415611f2a57611f1684612ea1565b50611f2084612c9e565b5060019550611f2f565b600095505b5050505050919050565b6000806000806000339350600187815481101515611f5357fe5b90600052602060002090600f0201600101549250600083815481101515611f7657fe5b906000526020600020906007020160060154915081600188815481101515611f9a57fe5b90600052602060002090600f020160020154811515611fb557fe5b05905060011515600084815481101515611fcb57fe5b906000526020600020906007020160030160008673ffffffffffffffffffffffffffffffffffffffff1673ffffffffffffffffffffffffffffffffffffffff16815260200190815260200160002060009054906101000a900460ff1615151415156120c4576040517f08c379a00000000000000000000000000000000000000000000000000000000081526004018080602001828103825260238152602001807f55736572206d75737420626520612047726f7570204d656d62657220746f206281526020017f69642e000000000000000000000000000000000000000000000000000000000081525060400191505060405180910390fd5b600115156000848154811015156120d757fe5b906000526020600020906007020160010160009054906101000a900460ff161515141515612193576040517f08c379a00000000000000000000000000000000000000000000000000000000081526004018080602001828103825260338152602001807f47726f7570206d75737420626520636c6f736564206265666f7265206269646481526020017f696e67206d61792074616b6520706c6163652e0000000000000000000000000081525060400191505060405180910390fd5b600015156001888154811015156121a657fe5b90600052602060002090600f020160080160008673ffffffffffffffffffffffffffffffffffffffff1673ffffffffffffffffffffffffffffffffffffffff16815260200190815260200160002060009054906101000a900460ff16151514151561229f576040517f08c379a00000000000000000000000000000000000000000000000000000000081526004018080602001828103825260228152602001807f5573657220616c726561647920626964206f6e20746869732050726f706f736181526020017f6c2e00000000000000000000000000000000000000000000000000000000000081525060400191505060405180910390fd5b80600560003373ffffffffffffffffffffffffffffffffffffffff1673ffffffffffffffffffffffffffffffffffffffff16815260200190815260200160002054121515156123c8576040517f08c379a000000000000000000000000000000000000000000000000000000000815260040180806020018281038252606f8152602001807f55736572206d757374207374616b6520746865202766616972272076616c756581526020017f206f66207468652050726f706f73616c20746f2074686520636f6e747261637481526020017f202870726f706f73616c20636f73742f67726f7570206d656d6265727329206981526020017f6e206f7264657220746f206269642e000000000000000000000000000000000081525060800191505060405180910390fd5b600180888154811015156123d857fe5b90600052602060002090600f020160080160008673ffffffffffffffffffffffffffffffffffffffff1673ffffffffffffffffffffffffffffffffffffffff16815260200190815260200160002060006101000a81548160ff02191690831515021790555060018781548110151561244c57fe5b90600052602060002090600f0201600401600081548092919060010191905055508560018881548110151561247d57fe5b90600052602060002090600f0201600b0160008673ffffffffffffffffffffffffffffffffffffffff1673ffffffffffffffffffffffffffffffffffffffff1681526020019081526020016000208160001916905550600a60008573ffffffffffffffffffffffffffffffffffffffff1673ffffffffffffffffffffffffffffffffffffffff168152602001908152602001600020600081819054906101000a900463ffffffff168092919060010191906101000a81548163ffffffff021916908363ffffffff160217905550508160018881548110151561255b57fe5b90600052602060002090600f02016004015414156125865761257c87612ea1565b506001945061258b565b600094505b5050505092915050565b60026020528060005260406000206000915090505481565b60056020528060005260406000206000915090505481565b6125cd61413e565b600087826000018190525066038d7ea4c680008702826040018181525050858260200181815250508282610140019073ffffffffffffffffffffffffffffffffffffffff16908173ffffffffffffffffffffffffffffffffffffffff1681525050428260a0018181525050848260c0018181525050838260e00181815250506201518061265a8587612f1e565b1115156126f5576040517f08c379a000000000000000000000000000000000000000000000000000000000815260040180806020018281038252603d8152602001807f52657665616c20646561646c696e65206d757374206265206174206c6561737481526020017f20323420686f7572732061667465722062696420646561646c696e652e00000081525060400191505060405180910390fd5b6001829080600181540180825580915050906001820390600052602060002090600f020160009091929091909150600082015181600001908051906020019061273f929190614034565b506020820151816001015560408201518160020155606082015181600301556080820151816004015560a0820151816005015560c0820151816006015560e0820151816007015561010082015181600c0160006101000a81548160ff02191690831515021790555061012082015181600c0160016101000a81548160ff02191690831515021790555061014082015181600c0160026101000a81548173ffffffffffffffffffffffffffffffffffffffff021916908373ffffffffffffffffffffffffffffffffffffffff16021790555061016082015181600d015561018082015181600e015550505060018080549050039050600e60008781526020019081526020016000208190806001815401808255809150509060018203906000526020600020016000909192909190915055505050505050505050565b600061288d8266038d7ea4c68000612f37565b3414151561289a57600080fd5b34600560003373ffffffffffffffffffffffffffffffffffffffff1673ffffffffffffffffffffffffffffffffffffffff16815260200190815260200160002060008282540192505081905550349050919050565b60086020528060005260406000206000915090505481565b6000919050565b600b6020528160005260406000206020528060005260406000206000915091509054906101000a900460ff1681565b60606000808481548110151561294f57fe5b906000526020600020906007020160020160008581548110151561296f57fe5b90600052602060002090600702016002018481548110151561298d57fe5b9060005260206000200160009054906101000a900473ffffffffffffffffffffffffffffffffffffffff1681805480602002602001604051908101604052809291908181526020018280548015612a3957602002820191906000526020600020905b8160009054906101000a900473ffffffffffffffffffffffffffffffffffffffff1673ffffffffffffffffffffffffffffffffffffffff16815260200190600101908083116129ef575b50505050509150915091509250929050565b60076020528060005260406000206000915090505481565b60046020528060005260406000206000915090505481565b600080600560003373ffffffffffffffffffffffffffffffffffffffff1673ffffffffffffffffffffffffffffffffffffffff1681526020019081526020016000205490508091505090565b600181815481101515612ad657fe5b90600052602060002090600f0201600091509050806000018054600181600116156101000203166002900480601f016020809104026020016040519081016040528092919081815260200182805460018160011615610100020316600290048015612b825780601f10612b5757610100808354040283529160200191612b82565b820191906000526020600020905b815481529060010190602001808311612b6557829003601f168201915b50505050509080600101549080600201549080600301549080600401549080600501549080600601549080600701549080600c0160009054906101000a900460ff169080600c0160019054906101000a900460ff169080600c0160029054906101000a900473ffffffffffffffffffffffffffffffffffffffff169080600d01549080600e015490508d565b60066020528060005260406000206000915090505481565b600e60205281600052604060002081815481101515612c4157fe5b90600052602060002001600091509150505481565b600c602052816000526040600020602052806000526040600020600091509150505481565b600a6020528060005260406000206000915054906101000a900463ffffffff1681565b600080600183815481101515612cb057fe5b90600052602060002090600f0201600c0160029054906101000a900473ffffffffffffffffffffffffffffffffffffffff169050600183815481101515612cf357fe5b90600052602060002090600f0201600201546003600085815260200190815260200160002054121515612e575760018084815481101515612d3057fe5b90600052602060002090600f0201600c0160006101000a81548160ff02191690831515021790555060036000848152602001908152602001600020543073ffffffffffffffffffffffffffffffffffffffff1631121515612df7578073ffffffffffffffffffffffffffffffffffffffff166108fc600185815481101515612db457fe5b90600052602060002090600f0201600201549081150290604051600060405180830381858888f19350505050158015612df1573d6000803e3d6000fd5b50612e52565b8073ffffffffffffffffffffffffffffffffffffffff166108fc60036000868152602001908152602001600020549081150290604051600060405180830381858888f19350505050158015612e50573d6000803e3d6000fd5b505b612e91565b6000600184815481101515612e6857fe5b90600052602060002090600f0201600c0160006101000a81548160ff0219169083151502179055505b612e9a83612f72565b5050919050565b6000600182815481101515612eb257fe5b90600052602060002090600f020160040154600183815481101515612ed357fe5b90600052602060002090600f020160020154811515612eee57fe5b05905080600183815481101515612f0157fe5b90600052602060002090600f020160030181905550809050919050565b6000828211151515612f2c57fe5b818303905092915050565b6000806000841415612f4c5760009150612f6b565b8284029050828482811515612f5d57fe5b04141515612f6757fe5b8091505b5092915050565b6000806000806000600186815481101515612f8957fe5b90600052602060002090600f0201600101549350600084815481101515612fac57fe5b9060005260206000209060070201600201805490509250600091505b828210156130c157600084815481101515612fdf57fe5b906000526020600020906007020160020182815481101515612ffd57fe5b9060005260206000200160009054906101000a900473ffffffffffffffffffffffffffffffffffffffff169050600160008581548110151561303b57fe5b906000526020600020906007020160030160008373ffffffffffffffffffffffffffffffffffffffff1673ffffffffffffffffffffffffffffffffffffffff16815260200190815260200160002060006101000a81548160ff0219169083151502179055156130b4576130ae86826130ca565b50505050505b8180600101925050612fc8565b50505050919050565b600080600080600080600080600080600060018d8154811015156130ea57fe5b90600052602060002090600f0201955085600a0160008d73ffffffffffffffffffffffffffffffffffffffff1673ffffffffffffffffffffffffffffffffffffffff168152602001908152602001600020549450600360008e815260200190815260200160002054935085600201548585031392508560020154866003015486860301139150856003015485139950600086600301541415151561318d57600080fd5b60001515600b60008f815260200190815260200160002060008e73ffffffffffffffffffffffffffffffffffffffff1673ffffffffffffffffffffffffffffffffffffffff16815260200190815260200160002060009054906101000a900460ff1615151415156131fd57600080fd5b6001151586600c0160009054906101000a900460ff161515148015613226575060001515831515145b80156132365750600115158a1515145b1561324f5760019a506132498d8d6137c6565b5061373c565b6001151586600c0160009054906101000a900460ff161515148015613278575060001515831515145b80156132885750600015158a1515145b156134835760019a50600560008d73ffffffffffffffffffffffffffffffffffffffff1673ffffffffffffffffffffffffffffffffffffffff1681526020019081526020016000205490506000995085600301548112151561338b578560030154600560008e73ffffffffffffffffffffffffffffffffffffffff1673ffffffffffffffffffffffffffffffffffffffff168152602001908152602001600020600082825403925050819055508560030154600860008e73ffffffffffffffffffffffffffffffffffffffff1673ffffffffffffffffffffffffffffffffffffffff1681526020019081526020016000206000828254019250508190555061347e565b856003015481121561347d5784866003015403600960008e73ffffffffffffffffffffffffffffffffffffffff1673ffffffffffffffffffffffffffffffffffffffff1681526020019081526020016000206000828254019250508190555080600860008e73ffffffffffffffffffffffffffffffffffffffff1673ffffffffffffffffffffffffffffffffffffffff168152602001908152602001600020600082825401925050819055506000600560008e73ffffffffffffffffffffffffffffffffffffffff1673ffffffffffffffffffffffffffffffffffffffff168152602001908152602001600020819055505b5b61373b565b6000151586600c0160009054906101000a900460ff1615151480156134ac575060011515821515145b156134c65760019a506134bf8d8d613cf2565b505061373a565b6000151586600c0160009054906101000a900460ff1615151480156134ef575060001515821515145b156134fd5760009a50613739565b6001151586600c0160009054906101000a900460ff161515148015613526575060011515831515145b80156135365750600115158a1515145b156135e65760009a508560030154600860008e73ffffffffffffffffffffffffffffffffffffffff1673ffffffffffffffffffffffffffffffffffffffff168152602001908152602001600020600082825401925050819055508560030154600560008e73ffffffffffffffffffffffffffffffffffffffff1673ffffffffffffffffffffffffffffffffffffffff16815260200190815260200160002060008282540392505081905550613738565b6001151586600c0160009054906101000a900460ff16151514801561360f575060011515831515145b801561361f5750600015158a1515145b156137325760009a508486600301540386600d016000828254019250508190555084866003015403600960008e73ffffffffffffffffffffffffffffffffffffffff1673ffffffffffffffffffffffffffffffffffffffff1681526020019081526020016000206000828254019250508190555084600860008e73ffffffffffffffffffffffffffffffffffffffff1673ffffffffffffffffffffffffffffffffffffffff1681526020019081526020016000206000828254019250508190555084600560008e73ffffffffffffffffffffffffffffffffffffffff1673ffffffffffffffffffffffffffffffffffffffff16815260200190815260200160002060008282540392505081905550613737565b60009a505b5b5b5b5b5b6001600b60008f815260200190815260200160002060008e73ffffffffffffffffffffffffffffffffffffffff1673ffffffffffffffffffffffffffffffffffffffff16815260200190815260200160002060006101000a81548160ff0219169083151502179055508a8a84878703889a509a509a509a509a505050505050509295509295909350565b60008060008060008060008060018a8154811015156137e157fe5b90600052602060002090600f0201965086600a0160008a73ffffffffffffffffffffffffffffffffffffffff1673ffffffffffffffffffffffffffffffffffffffff168152602001908152602001600020549550600360008b81526020019081526020016000205494506000876001015481548110151561385e57fe5b9060005260206000209060070201600601549350600560008a73ffffffffffffffffffffffffffffffffffffffff1673ffffffffffffffffffffffffffffffffffffffff1681526020019081526020016000205492508660030154600185038787038115156138c957fe5b0512156138e557858503600185896003015402030391506138ea565b600091505b6001151587600c0160009054906101000a900460ff16151514151561390e57600080fd5b866003015486121580156139285750818760030154018312155b15613a2a576001905081876003015401600560008b73ffffffffffffffffffffffffffffffffffffffff1673ffffffffffffffffffffffffffffffffffffffff1681526020019081526020016000206000828254039250508190555081600660008b73ffffffffffffffffffffffffffffffffffffffff1673ffffffffffffffffffffffffffffffffffffffff168152602001908152602001600020600082825401925050819055508660030154600860008b73ffffffffffffffffffffffffffffffffffffffff1673ffffffffffffffffffffffffffffffffffffffff16815260200190815260200160002060008282540192505081905550809750613ce5565b86600301548612158015613a4357508187600301540183125b15613ce45760019050866003015483121515613b9c578660030154600860008b73ffffffffffffffffffffffffffffffffffffffff1673ffffffffffffffffffffffffffffffffffffffff1681526020019081526020016000206000828254019250508190555086600301548303600660008b73ffffffffffffffffffffffffffffffffffffffff1673ffffffffffffffffffffffffffffffffffffffff16815260200190815260200160002060008282540192505081905550866003015483038203600760008b73ffffffffffffffffffffffffffffffffffffffff1673ffffffffffffffffffffffffffffffffffffffff168152602001908152602001600020600082825401925050819055506000600560008b73ffffffffffffffffffffffffffffffffffffffff1673ffffffffffffffffffffffffffffffffffffffff16815260200190815260200160002081905550613cdc565b8660030154831215613cdb5782600860008b73ffffffffffffffffffffffffffffffffffffffff1673ffffffffffffffffffffffffffffffffffffffff1681526020019081526020016000206000828254019250508190555082876003015403600960008b73ffffffffffffffffffffffffffffffffffffffff1673ffffffffffffffffffffffffffffffffffffffff1681526020019081526020016000206000828254019250508190555081600760008b73ffffffffffffffffffffffffffffffffffffffff1673ffffffffffffffffffffffffffffffffffffffff168152602001908152602001600020600082825401925050819055506000600560008b73ffffffffffffffffffffffffffffffffffffffff1673ffffffffffffffffffffffffffffffffffffffff168152602001908152602001600020819055505b5b809750613ce5565b5b5050505050505092915050565b600080600080600080600080600080151587600c0160009054906101000a900460ff161515141515613d2357600080fd5b60018b815481101515613d3257fe5b90600052602060002090600f02019650600560008b73ffffffffffffffffffffffffffffffffffffffff1673ffffffffffffffffffffffffffffffffffffffff16815260200190815260200160002054955086600a0160008b73ffffffffffffffffffffffffffffffffffffffff1673ffffffffffffffffffffffffffffffffffffffff168152602001908152602001600020549450600360008c815260200190815260200160002054935060008760010154815481101515613df157fe5b9060005260206000209060070201600601549250866003015460018403028585030391508186121515613ec7576000905081600560008c73ffffffffffffffffffffffffffffffffffffffff1673ffffffffffffffffffffffffffffffffffffffff1681526020019081526020016000206000828254039250508190555081600660008c73ffffffffffffffffffffffffffffffffffffffff1673ffffffffffffffffffffffffffffffffffffffff16815260200190815260200160002060008282540192505081905550808298509850613fc6565b85821315613fbf576000905085600660008c73ffffffffffffffffffffffffffffffffffffffff1673ffffffffffffffffffffffffffffffffffffffff16815260200190815260200160002060008282540192505081905550858203600760008c73ffffffffffffffffffffffffffffffffffffffff1673ffffffffffffffffffffffffffffffffffffffff168152602001908152602001600020600082825401925050819055506000600560008c73ffffffffffffffffffffffffffffffffffffffff1673ffffffffffffffffffffffffffffffffffffffff16815260200190815260200160002081905550808298509850613fc6565b8082985098505b505050505050509250929050565b6101006040519081016040528060608152602001600015158152602001600015158152602001600073ffffffffffffffffffffffffffffffffffffffff168152602001606081526020016000815260200160008152602001600081525090565b828054600181600116156101000203166002900490600052602060002090601f016020900481019282601f1061407557805160ff19168380011785556140a3565b828001600101855582156140a3579182015b828111156140a2578251825591602001919060010190614087565b5b5090506140b091906141c1565b5090565b82805482825590600052602060002090810192821561412d579160200282015b8281111561412c5782518260006101000a81548173ffffffffffffffffffffffffffffffffffffffff021916908373ffffffffffffffffffffffffffffffffffffffff160217905550916020019190600101906140d4565b5b50905061413a91906141e6565b5090565b6101a0604051908101604052806060815260200160008152602001600081526020016000815260200160008152602001600081526020016000815260200160008152602001600015158152602001600015158152602001600073ffffffffffffffffffffffffffffffffffffffff16815260200160008152602001600081525090565b6141e391905b808211156141df5760008160009055506001016141c7565b5090565b90565b61422691905b8082111561422257600081816101000a81549073ffffffffffffffffffffffffffffffffffffffff0219169055506001016141ec565b5090565b905600a165627a7a723058202f15ff023ac0e18c24df87ad2e80dbe79d1c828f99c1785d5b52e4ef6bb07a310029",
  "source": "pragma solidity ^0.4.18;\n\nimport \"./SafeMath.sol\";\nimport \"./Ownable.sol\";\nimport \"./VCGLib1.sol\";\n\ncontract VCG_operator {\n    using SafeMath for uint256;\n    \n        //** STORAGE **//\n\n        //general\n    VCGLib1.Electorate[] public electorateList;\n    VCGLib1.Proposal[] public proposalList;\n        //proposal info\n    mapping (uint256 => uint256) public proposalElectorateMap;\n    mapping (uint256 => int256) public proposalBidCounter;\n    mapping (uint256 => int256) public revealedBids;\n        //user info\n    mapping (address => int256) public postedFunds;\n    mapping (address => int256) public retainedTax;\n    mapping (address => int256) public outstandingTax;\n    mapping (address => int256) public paidDues;\n    mapping (address => int256) public outstandingDues;\n    mapping (address => uint32) public fundsLockedUnlessZero;\n    mapping (uint256 => mapping(address => bool)) public settleUpRecords;\n        //electorate info\n    mapping (uint256 => mapping (address => uint256)) public noShowCount; //number of noShows that gets you kicked from group\n        //list of pending proposals by address, electorate\n    mapping (address => uint256[]) public addressProposals;\n    mapping (uint256 => uint256[]) public electorateProposals;\n\n\n        //** EVENTS **//\n\n    event electorateCreated (\n        string electorateName,\n        uint256 electorateID\n        );\n\n    event blindBidSubmitted (\n        string electorateName,\n        uint256 electorateID,\n        uint256 proposalID,\n        bytes32 hashedBid\n        );\n\n        //** FUNCTIONS **//\n\n    function createProposal (string _proposalDescription,\n        int256 _neededAmount,\n        uint256 _electorateID,\n        uint256 _bidDeadline,\n        uint256 _revealDeadline,\n        address _beneficiaryAddress)\n        public {\n\n            VCGLib1.Proposal memory _proposal;\n\n            _proposal.proposalDescription = _proposalDescription;\n            _proposal.neededAmount = (_neededAmount * 1000000000000000);\n            _proposal.electorateID = _electorateID;\n            _proposal.beneficiaryAddress = _beneficiaryAddress;\n            _proposal.postedTime = now;\n            _proposal.bidDeadline = _bidDeadline;\n            _proposal.revealDeadline = _revealDeadline;\n\n            require(SafeMath.sub(_revealDeadline, _bidDeadline) > 86400,\n                \"Reveal deadline must be at least 24 hours after bid deadline.\");\n\n            proposalList.push(_proposal);\n\n            uint256 _ID = proposalList.length-1;\n            electorateProposals[_electorateID].push(_ID);\n\n    }\n\n    function createElectorate (string _electorateName,\n        bool _ownedList)\n        public\n        returns (uint256) {\n\n            VCGLib1.Electorate memory _electorate;\n\n            _electorate.electorateName = _electorateName;\n            _electorate.ownedList = _ownedList;\n            _electorate.electorateCreator = msg.sender;\n            _electorate.addressArray = new address[](0);\n            _electorate.memberCount = 0;\n\n\n            electorateList.push(_electorate);\n\n            emit electorateCreated(\n                _electorateName,\n                electorateList.length-1\n            );\n\n            return electorateList.length-1;\n\n    }\n\n    function addToElectorate (uint256 _electorateID,\n        address _voterToAdd)\n        public returns (bool success) {\n\n            VCGLib1.Electorate storage electorate = electorateList[_electorateID];\n\n\n                //throw if sender not required owner of electorate\n\n            if (electorate.ownedList == true) {\n                require(electorate.electorateCreator == msg.sender);\n            }\n                //throw if voter already in electorate\n            require(electorate.membershipCheck[_voterToAdd] == false);\n\n                //add voter\n\n            electorate.addressArray.push(_voterToAdd);\n            electorate.membershipCheck[_voterToAdd] = true;\n            electorate.memberCount++;\n\n            return success = true;\n\n    }\n\n    function closeElectorate (uint256 _electorateID)\n        public returns (bool success) {\n\n            VCGLib1.Electorate storage electorate = electorateList[_electorateID];\n\n            if (electorate.ownedList == true) {\n                require(electorate.electorateCreator == msg.sender);\n            }\n\n            electorate.listComplete = true;\n\n            return true;\n        }\n\n    function conductBlindVote(uint256 _proposalID, bytes32 _hashedBid)\n        public payable returns (bool voteClosed) {\n\n            address voter = msg.sender;\n            uint256 electorateKey = proposalList[_proposalID].electorateID;\n            int256 wholeElectorate = electorateList[electorateKey].memberCount;\n            int256 fairVal = (proposalList[_proposalID].neededAmount / wholeElectorate);\n\n            require(electorateList[electorateKey].membershipCheck[voter] == true,\n                \"User must be a Group Member to bid.\");\n            require(electorateList[electorateKey].listComplete == true,\n                \"Group must be closed before bidding may take place.\");\n            require(proposalList[_proposalID].voted[voter]==false,\n                \"User already bid on this Proposal.\");\n            require(postedFunds[msg.sender] >= fairVal,\n                    \"User must stake the 'fair' value of the Proposal to the contract (proposal cost/group members) in order to bid.\");\n\n            proposalList[_proposalID].voted[voter] = true;\n            proposalList[_proposalID].numberOfVotes ++;\n            proposalList[_proposalID].hashedBid[voter] = _hashedBid;\n\n            //add one to fundsLockedUnlessZero\n            fundsLockedUnlessZero[voter] ++;\n\n            if (proposalList[_proposalID].numberOfVotes == wholeElectorate) {\n                    //call closeVote() function\n                closeVote(_proposalID);\n                return true;\n            } else {\n                return false;\n            }\n\n\n    }\n\n        /*vote function without blinding, for testing*/\n\n    function conductNonBlindVote(uint256 _proposalID)\n        public payable returns (bool voteClosed) {\n\n            address voter = msg.sender;\n            uint256 proposalID = _proposalID;\n            int256 amountValued = int(msg.value);\n            uint256 electorateKey = proposalList[proposalID].electorateID;\n            int256 wholeElectorate = electorateList[electorateKey].memberCount;\n\n            require(electorateList[electorateKey].membershipCheck[voter] == true);\n            require(electorateList[electorateKey].listComplete == true);\n            require(proposalList[proposalID].voted[voter]==false);\n\n            proposalList[proposalID].voted[voter] = true;\n            proposalList[proposalID].numberOfVotes ++;\n            proposalList[proposalID].bid[msg.sender] += amountValued;\n            proposalBidCounter[proposalID] += amountValued;\n            postedFunds[msg.sender] += amountValued;\n\n\n            if (proposalList[proposalID].numberOfVotes == wholeElectorate) {\n                    //call closeVote() function\n                closeVote(proposalID);\n                    //call tallyBids() function\n                tallyBids(proposalID);\n                return true;\n            } else {\n                return false;\n            }\n\n\n    }\n\n    function closeVote(uint256 _propID)\n        internal returns (int256 fairAmount) {\n\n            fairAmount = (proposalList[_propID].neededAmount / proposalList[_propID].numberOfVotes);\n            proposalList[_propID].fairAmount = fairAmount;\n\n            return (fairAmount);\n\n        }\n\n    // function getContractBalance ()\n    //     public constant returns (uint256) {\n    //         return address(this).balance;\n    //     }\n    function getKBal ()\n        public constant returns (uint256 _money) {\n            return VCGLib1.getContractBalance();\n    }\n\n    function revealBid (uint256 _propID, int256 _bidReveal)\n        public payable returns (bool, uint256) {\n\n            //check hash, not already revealed, deposit >= bid\n            require(keccak256(abi.encodePacked(_bidReveal))\n                == proposalList[_propID].hashedBid[msg.sender],\n                \"This bid does not match your blind bid.  You may try again.\");\n                //NEW!\n            require(proposalList[_propID].revealed[msg.sender] == false,\n                \"Your blind bid on this proposal has already been revealed.\");\n                //NEW!\n            require(postedFunds[msg.sender] >= _bidReveal,\n                \"You may not bid more Ether than you have deposited. Please deposit additional Ether to the contract, and then reveal your Bid.\");\n\n            //tally up bid\n            proposalList[_propID].bid[msg.sender] += (_bidReveal * 1000000000000000);\n            proposalBidCounter[_propID] += (_bidReveal * 1000000000000000);\n            revealedBids[_propID] ++;\n\n            //keep track of total short bid shortfall\n            //in the event tax must be taken from more than one long bidder,\n            //this is the excess above fair that must be collected from long bidders\n            // if (proposalList[_propID].bid[msg.sender] < proposalList[_propID].fairAmount) {\n            //     proposalList[_propID].shortBidShortfallTallier +=\n            //         SafeMath.sub(proposalList[_propID].fairAmount, proposalList[_propID].bid[msg.sender]);\n            //     proposalList[_propID].shortBidderCount ++;\n\n            //     //keep track of longBidderExcess\n            // } else if (proposalList[_propID].bid[msg.sender] > proposalList[_propID].fairAmount) {\n            //     proposalList[_propID].longBidExcessTallier +=\n            //         SafeMath.sub(proposalList[_propID].bid[msg.sender], proposalList[_propID].fairAmount);\n            // }\n\n            //pass to payout if this is the last bid\n            if (revealedBids[_propID] == proposalList[_propID].numberOfVotes) {\n                tallyBids(_propID);\n            } // *!* here, add an 'else' clause resolving if time's up for bid reveals\n\n\n            //reduce fundsLockedUnlessZero by one\n            fundsLockedUnlessZero[msg.sender] --;\n\n            return (true, _propID);\n\n        }\n\n    function closeBiddingAtDeadline (uint256 __propID)\n        public returns (bool) {\n        //invoke closeVote function\n        //(thus calculating fairAmount and readying proposal for reveal phase)\n        //when time limit is up\n\n    }\n\n    function closeRevealingAtDeadline (uint256 __propID)\n        public returns (bool) {\n        //invoke tallyBid function\n        //(thus closing/executing the proposal)\n        //when time limit is up (in case not everyone who voted revealed in time)\n\n    }\n\n    function tallyBids (uint256 _propID)\n        internal returns (bool) {\n\n                //vars\n            address beneficiary = proposalList[_propID].beneficiaryAddress;\n\n                //check if passed\n            if (proposalBidCounter[_propID] >= proposalList[_propID].neededAmount) {\n                proposalList[_propID].outcomePassed = true;\n                if (int(address(this).balance) >= proposalBidCounter[_propID]) {\n                    beneficiary.transfer(uint(proposalList[_propID].neededAmount));\n                } else {\n                    beneficiary.transfer(uint(proposalBidCounter[_propID]));\n                }\n            } else {\n                proposalList[_propID].outcomePassed = false;\n            }\n\n            //call settleUpAll\n\n            settleUpAll(_propID);\n\n        }\n\n    function settleUpAll(uint256 _propID)\n        internal returns (bool) {\n\n            //vars\n\n            uint256 electorateKey = proposalList[_propID].electorateID;\n            uint256 wholeElectorate = electorateList[electorateKey].addressArray.length; //recall this may include kicked out members\n\n            //call settleUp for each electorate member\n            for (uint256 i = 0; i<wholeElectorate; i++) {\n                address _address = electorateList[electorateKey].addressArray[i];\n                if (electorateList[electorateKey].membershipCheck[_address] = true) {\n                    settleUp(_propID, _address);\n                }\n            }\n    }\n\n    function settleUp(uint256 _propID, address _settlingAddress)\n        internal returns (bool pivotal, bool exceedsFair, bool pswoutbdr, int256, int256) {\n\n\n            //find out what to tax and pay out and execute it\n            VCGLib1.Proposal storage proposal = proposalList[_propID];\n            int256 settlerBid = proposal.bid[_settlingAddress];\n            int256 totalBid = proposalBidCounter[_propID];\n            bool passedWithoutBidder = ((totalBid - settlerBid) > proposal.neededAmount);\n            bool passedIfBidderBidFair =\n                ((totalBid - settlerBid + proposal.fairAmount) > proposal.neededAmount);\n            exceedsFair = (settlerBid > proposal.fairAmount);\n\n            //require that proposal has been closed\n            //and hasn't been prior settleup\n            //and hashed bid is correct\n            require(proposal.fairAmount != 0);\n            require(settleUpRecords[_propID][_settlingAddress] == false);\n\n\n                //determine if voter pivotal, send to calculate tax if bid more than fair\n\n            if ((proposal.outcomePassed == true) && (passedWithoutBidder == false)\n                && (exceedsFair == true)) {\n                pivotal = true;\n\n                //postedFunds[_settlingAddress] -= proposal.fairAmount; //reduces balance by retained bid\n                //paidDues[_settlingAddress] += proposal.fairAmount;\n\n                calculatePassTax(_propID, _settlingAddress); //invoke tax function\n\n            } else if ((proposal.outcomePassed == true) && (passedWithoutBidder == false)\n                && (exceedsFair == false)) {\n                pivotal = true;\n\n                    //don't invoke tax function bc no negative externality imposed\n                //paidDues[_settlingAddress] += settlerBid;\n                //outstandingDues[_settlingAddress] += SafeMath.sub(proposal.fairAmount, settlerBid);\n                //postedFunds[_settlingAddress] -= settlerBid; //reduces balance by retained bid\n                //proposal.shortfallTallier += SafeMath.sub(proposal.fairAmount, settlerBid);\n\n                //calculatePassTax(_propID, _settlingAddress);\n                int256 balance = postedFunds[_settlingAddress];\n\n                exceedsFair = false;\n                if (balance >= proposal.fairAmount) {\n                    postedFunds[_settlingAddress] -= proposal.fairAmount;\n                    paidDues[_settlingAddress] += proposal.fairAmount;\n                } else if (balance < proposal.fairAmount) {\n                    outstandingDues[_settlingAddress] += (proposal.fairAmount - settlerBid); //outstandingDues: deficit vs fair, less retained balance\n                    paidDues[_settlingAddress] += balance;\n                    postedFunds[_settlingAddress] = 0;\n                }\n\n            } else if ((proposal.outcomePassed == false) && (passedIfBidderBidFair == true)) {\n                pivotal = true;\n\n                    //invoke tax function\n                calculateFailTax(_propID, _settlingAddress);\n\n            } else if ((proposal.outcomePassed == false) && (passedIfBidderBidFair == false)) {\n\n                pivotal = false;\n               /*auction failed and no single party responsible;\n               no penalty; do nothing, leave funds in K,\n               bidder can now withdraw them*/\n\n\n            } else if (((proposal.outcomePassed == true) && (passedWithoutBidder == true))\n                && ((exceedsFair == true))) {\n                pivotal = false;\n\n                /*do not refund, but bidder can now withdraw balance*/\n                // uint256 refund = SafeMath.sub(settlerBid, proposal.fairAmount);\n                // _settlingAddress.transfer(refund);\n\n                /*!!!!build new function here that divvies pro rata the shortbid shortfall, below\n                and levies tax consisting of part of excess bid!!!*/\n\n                paidDues[_settlingAddress] += proposal.fairAmount;\n                postedFunds[_settlingAddress] -= proposal.fairAmount; //reduces balance by fairAmount\n                //build function that credits excess bid to outstandingTax/Dues and run here\n\n                //voter not pivotal, prop passed, but bid does NOT exceed fair\n                //thus there is a deficit to track\n                //track defict as outstanding tax\n\n            } else if (((proposal.outcomePassed == true) && (passedWithoutBidder == true))\n                && ((exceedsFair == false))) {\n                pivotal = false;\n\n                proposal.shortfallTallier += (proposal.fairAmount - settlerBid);\n                    //**eventually make a function that automatically settles outstandingTax\n                    //**when function called\n                    /*tax in this situation should be part of bidder shortfall, not all*/\n\n                outstandingDues[_settlingAddress] += (proposal.fairAmount - settlerBid); //currently levies whole shortfall as tax\n                paidDues[_settlingAddress] += settlerBid;\n                postedFunds[_settlingAddress] -= settlerBid; //reduces balance by retained bid\n\n            } else {\n                pivotal = false;\n            }\n\n        //prevent double-call\n        settleUpRecords[_propID][_settlingAddress] = true;\n        return (pivotal, exceedsFair, passedWithoutBidder, totalBid-settlerBid, settlerBid);\n\n\n    }\n\n    function calculateFailTax (uint256 _propID, address _taxee)\n        internal returns (bool, int256) {\n\n            // check\n        require(proposal.outcomePassed == false);\n\n            //variable setup\n        VCGLib1.Proposal storage proposal = proposalList[_propID];\n        int256 balance = postedFunds[_taxee];\n        int256 senderBid = proposal.bid[_taxee];\n        int256 totalBid = proposalBidCounter[_propID];\n        int256 wholeElectorate = electorateList[proposal.electorateID].memberCount;\n        int256 failTax =\n            ((totalBid - senderBid) - ((wholeElectorate-1) * proposal.fairAmount));\n\n                /*user pivotal, prop not passed, bid exceeds failtax\n                retain failtax, return rest of bid\n                record retained*/\n            if (balance >= failTax) {\n\n                bool exceedsFair = false;\n                postedFunds[_taxee] -= failTax; //subtract tax from balance\n                retainedTax[_taxee] += failTax; //record tax\n\n                return (exceedsFair, failTax);\n\n\n                /*user pivotal, prop not passed, and tax exceeds bid\n                retain bid as tax\n                record outstandingTax*/\n            } else if (failTax > balance) {\n\n                exceedsFair = false;\n\n            //6-12: this should simply zero out balance and add tax-balance to outstandingTax\n\n                retainedTax[_taxee] += balance; //retain whole bid\n                outstandingTax[_taxee] += (failTax - balance); //debit tax owed over and above bid\n                postedFunds[_taxee] = 0; //zero out\n\n                return (exceedsFair, failTax);\n\n                //this shoud never get called\n            } else {\n\n                return (exceedsFair, failTax);\n\n            }\n\n    }\n\n    function calculatePassTax (uint256 _propID, address _taxee)\n        internal returns (bool) {\n\n            //variable setup\n        VCGLib1.Proposal storage proposal = proposalList[_propID];\n        int256 senderBid = proposal.bid[_taxee];\n        int256 totalBid = proposalBidCounter[_propID];\n        int256 wholeElectorate = electorateList[proposal.electorateID].memberCount;\n        //uint256 excess = SafeMath.sub(senderBid, proposal.fairAmount);\n        int256 balance = postedFunds[_taxee];\n\n\n        /*handle edge case where fairTimesAllButOne exceeds totalMinusSender*/\n        //calculate tax for passed proposal\n        if ((totalBid-senderBid)/(wholeElectorate-1) < proposal.fairAmount) {\n            int256 passTax =\n                ((proposal.fairAmount * wholeElectorate-1) - (totalBid - senderBid));\n        } else {\n            passTax = 0;\n        }\n\n\n            //gut check\n        require (proposal.outcomePassed == true);\n\n                // user pivotal, prop passed, and bid exceeds fair\n            if ((senderBid >= proposal.fairAmount)\n                && (balance >= (proposal.fairAmount + passTax))) {\n\n                bool exceedsFair = true;\n                postedFunds[_taxee] -= (proposal.fairAmount + passTax); //decredit balance\n                retainedTax[_taxee] += passTax; //record retained tax\n                paidDues[_taxee] += proposal.fairAmount;\n\n                return (exceedsFair);\n\n            } else if ((senderBid >= proposal.fairAmount)\n                && (balance < (proposal.fairAmount + passTax))) {\n\n                exceedsFair = true;\n\n                if (balance >= proposal.fairAmount) {\n                    paidDues[_taxee] += proposal.fairAmount;\n                    retainedTax[_taxee] += (balance - proposal.fairAmount);\n                    outstandingTax[_taxee] +=\n                      (passTax - (balance - proposal.fairAmount));\n\n                   postedFunds[_taxee] = 0; //clear out balance\n\n                } else if (balance < proposal.fairAmount) {\n                    paidDues[_taxee] += balance;\n                    outstandingDues[_taxee] += (proposal.fairAmount - balance);\n                    outstandingTax[_taxee] += passTax;\n\n                    postedFunds[_taxee] = 0; //clear out balance\n\n                }\n\n                return (exceedsFair);\n            }\n    }\n\n    function depositEtherToContract (uint256 _deposit)\n        public payable returns (uint256) {\n\n            require(msg.value == SafeMath.mul(_deposit, 1000000000000000)); //\n            postedFunds[msg.sender] += int(msg.value);\n            return msg.value;\n\n        }\n\n    function()\n        public payable {\n\n            postedFunds[msg.sender] += int(msg.value);\n\n        }\n\n\n    //     //untested function\n    // function corralDelinquents(uint256 _electorate, bool _boot)\n    //     public returns (address[] delinquents) {\n\n    //         VCGLib1.Electorate storage electorate = electorateList[_electorate];\n    //         //delinquents memory = _delinquents[];\n    //         uint256 wholeElectorate = electorate.addressArray.length;\n\n    //         if (electorate.ownedList = true) {\n    //             require(electorate.electorateCreator == msg.sender,\n    //             \"This function is restricted to the Group Owner.\");\n    //         }\n\n    //         for (uint256 i = 0; i<wholeElectorate; i++) {\n    //             address _address = electorate.addressArray[i];\n    //             if ((electorate.membershipCheck[_address] = true)\n    //                 && (electorate.maxNoShows >= noShowCount[_electorate][_address])) {\n    //                 delinquents[delinquents.length] = _address;\n    //                 if (_boot == true) {\n    //                     bootMember(_electorate, _address);\n    //                 }\n    //             }\n    //         }\n    //         return delinquents;\n    //     }\n\n    //     //untested function\n    // function bootMember(uint256 _electorate, address _member)\n    //     public {\n\n    //         //boot passed _member address:\n    //         electorateList[_electorate].membershipCheck[_member] = false;\n\n    //     }\n\n\n        //withdraw ether from contract\n\n    function withdrawEtherFromContract (int256 _withdrawal)\n        public payable returns (uint256) {\n\n                //require no pending bid\n            require(fundsLockedUnlessZero[msg.sender] == 0);\n                //require amount withdrawn less than amount deposited\n            require(_withdrawal <= postedFunds[msg.sender]);\n                //remit\n            postedFunds[msg.sender] -= (_withdrawal * 1000000000000000);\n            msg.sender.transfer(uint(_withdrawal * 1000000000000000));\n\n        }\n\n        //check storage mapping to see how many Ether the user has posted to the contract\n\n    function checkEtherSentToContract ()\n        public constant returns (int256) {\n\n            int256 userFunds = postedFunds[msg.sender];\n            return userFunds;\n\n        }\n\n        ///used in js so keep for now\n\n    function electorateMemberGetter (uint256 _electorateID, uint256 _index)\n        public constant returns (address[], address) {\n            return (electorateList[_electorateID].addressArray,\n                    electorateList[_electorateID].addressArray[_index]);\n        }\n\n    function panelProposalsGetter (uint256 _electorateID)\n        public constant returns (uint256[]) {\n            return (electorateProposals[_electorateID]);\n        }\n\n}\n",
  "sourcePath": "/Users/matthewprewitt/nonomos/contracts/VCG_operator.sol",
  "compiler": {
    "name": "solc",
    "version": "0.4.24+commit.e67f0147.Emscripten.clang"
  },
  "schemaVersion": "2.0.0",
  "updatedAt": "2018-07-17T17:29:30.741Z"
}