{
  "contractName": "VCG_operator",
  "abi": [
    {
      "constant": true,
      "inputs": [
        {
          "name": "",
          "type": "uint256"
        }
      ],
      "name": "proposalBidCounter",
      "outputs": [
        {
          "name": "",
          "type": "uint256"
        }
      ],
      "payable": false,
      "stateMutability": "view",
      "type": "function"
    },
    {
      "constant": true,
      "inputs": [
        {
          "name": "",
          "type": "address"
        },
        {
          "name": "",
          "type": "uint256"
        }
      ],
      "name": "addressProposals",
      "outputs": [
        {
          "name": "",
          "type": "uint256"
        }
      ],
      "payable": false,
      "stateMutability": "view",
      "type": "function"
    },
    {
      "constant": true,
      "inputs": [
        {
          "name": "",
          "type": "uint256"
        }
      ],
      "name": "electorateList",
      "outputs": [
        {
          "name": "electorateName",
          "type": "string"
        },
        {
          "name": "listComplete",
          "type": "bool"
        },
        {
          "name": "ownedList",
          "type": "bool"
        },
        {
          "name": "electorateCreator",
          "type": "address"
        },
        {
          "name": "maxNoShows",
          "type": "uint256"
        },
        {
          "name": "perMemberBuyIn",
          "type": "uint256"
        },
        {
          "name": "memberCount",
          "type": "uint256"
        }
      ],
      "payable": false,
      "stateMutability": "view",
      "type": "function"
    },
    {
      "constant": true,
      "inputs": [
        {
          "name": "",
          "type": "address"
        }
      ],
      "name": "outstandingDues",
      "outputs": [
        {
          "name": "",
          "type": "uint256"
        }
      ],
      "payable": false,
      "stateMutability": "view",
      "type": "function"
    },
    {
      "constant": true,
      "inputs": [
        {
          "name": "",
          "type": "uint256"
        }
      ],
      "name": "proposalElectorateMap",
      "outputs": [
        {
          "name": "",
          "type": "uint256"
        }
      ],
      "payable": false,
      "stateMutability": "view",
      "type": "function"
    },
    {
      "constant": true,
      "inputs": [
        {
          "name": "",
          "type": "address"
        }
      ],
      "name": "postedFunds",
      "outputs": [
        {
          "name": "",
          "type": "uint256"
        }
      ],
      "payable": false,
      "stateMutability": "view",
      "type": "function"
    },
    {
      "constant": true,
      "inputs": [
        {
          "name": "",
          "type": "address"
        }
      ],
      "name": "paidDues",
      "outputs": [
        {
          "name": "",
          "type": "uint256"
        }
      ],
      "payable": false,
      "stateMutability": "view",
      "type": "function"
    },
    {
      "constant": true,
      "inputs": [
        {
          "name": "",
          "type": "uint256"
        },
        {
          "name": "",
          "type": "address"
        }
      ],
      "name": "settleUpRecords",
      "outputs": [
        {
          "name": "",
          "type": "bool"
        }
      ],
      "payable": false,
      "stateMutability": "view",
      "type": "function"
    },
    {
      "constant": true,
      "inputs": [
        {
          "name": "",
          "type": "address"
        }
      ],
      "name": "outstandingTax",
      "outputs": [
        {
          "name": "",
          "type": "uint256"
        }
      ],
      "payable": false,
      "stateMutability": "view",
      "type": "function"
    },
    {
      "constant": true,
      "inputs": [
        {
          "name": "",
          "type": "uint256"
        }
      ],
      "name": "revealedBids",
      "outputs": [
        {
          "name": "",
          "type": "uint256"
        }
      ],
      "payable": false,
      "stateMutability": "view",
      "type": "function"
    },
    {
      "constant": true,
      "inputs": [
        {
          "name": "",
          "type": "uint256"
        }
      ],
      "name": "proposalList",
      "outputs": [
        {
          "name": "proposalDescription",
          "type": "string"
        },
        {
          "name": "electorateID",
          "type": "uint256"
        },
        {
          "name": "neededAmount",
          "type": "uint256"
        },
        {
          "name": "fairAmount",
          "type": "uint256"
        },
        {
          "name": "shortfallTallier",
          "type": "uint256"
        },
        {
          "name": "shortBidderCount",
          "type": "uint256"
        },
        {
          "name": "numberOfVotes",
          "type": "uint256"
        },
        {
          "name": "postedTime",
          "type": "uint256"
        },
        {
          "name": "bidDeadline",
          "type": "uint256"
        },
        {
          "name": "revealDeadline",
          "type": "uint256"
        },
        {
          "name": "outcomePassed",
          "type": "bool"
        },
        {
          "name": "resolved",
          "type": "bool"
        },
        {
          "name": "beneficiaryAddress",
          "type": "address"
        }
      ],
      "payable": false,
      "stateMutability": "view",
      "type": "function"
    },
    {
      "constant": true,
      "inputs": [
        {
          "name": "",
          "type": "address"
        }
      ],
      "name": "retainedTax",
      "outputs": [
        {
          "name": "",
          "type": "uint256"
        }
      ],
      "payable": false,
      "stateMutability": "view",
      "type": "function"
    },
    {
      "constant": true,
      "inputs": [
        {
          "name": "",
          "type": "uint256"
        },
        {
          "name": "",
          "type": "uint256"
        }
      ],
      "name": "electorateProposals",
      "outputs": [
        {
          "name": "",
          "type": "uint256"
        }
      ],
      "payable": false,
      "stateMutability": "view",
      "type": "function"
    },
    {
      "constant": true,
      "inputs": [
        {
          "name": "",
          "type": "uint256"
        },
        {
          "name": "",
          "type": "address"
        }
      ],
      "name": "noShowCount",
      "outputs": [
        {
          "name": "",
          "type": "uint256"
        }
      ],
      "payable": false,
      "stateMutability": "view",
      "type": "function"
    },
    {
      "constant": true,
      "inputs": [
        {
          "name": "",
          "type": "address"
        }
      ],
      "name": "fundsLockedUnlessZero",
      "outputs": [
        {
          "name": "",
          "type": "uint32"
        }
      ],
      "payable": false,
      "stateMutability": "view",
      "type": "function"
    },
    {
      "payable": true,
      "stateMutability": "payable",
      "type": "fallback"
    },
    {
      "anonymous": false,
      "inputs": [
        {
          "indexed": false,
          "name": "electorateName",
          "type": "string"
        },
        {
          "indexed": false,
          "name": "electorateID",
          "type": "uint256"
        }
      ],
      "name": "electorateCreated",
      "type": "event"
    },
    {
      "anonymous": false,
      "inputs": [
        {
          "indexed": false,
          "name": "electorateName",
          "type": "string"
        },
        {
          "indexed": false,
          "name": "electorateID",
          "type": "uint256"
        },
        {
          "indexed": false,
          "name": "proposalID",
          "type": "uint256"
        },
        {
          "indexed": false,
          "name": "hashedBid",
          "type": "bytes32"
        }
      ],
      "name": "blindBidSubmitted",
      "type": "event"
    },
    {
      "constant": false,
      "inputs": [
        {
          "name": "_proposalDescription",
          "type": "string"
        },
        {
          "name": "_neededAmount",
          "type": "uint256"
        },
        {
          "name": "_electorateID",
          "type": "uint256"
        },
        {
          "name": "_bidDeadline",
          "type": "uint256"
        },
        {
          "name": "_revealDeadline",
          "type": "uint256"
        },
        {
          "name": "_beneficiaryAddress",
          "type": "address"
        }
      ],
      "name": "createProposal",
      "outputs": [],
      "payable": false,
      "stateMutability": "nonpayable",
      "type": "function"
    },
    {
      "constant": false,
      "inputs": [
        {
          "name": "_electorateName",
          "type": "string"
        },
        {
          "name": "_ownedList",
          "type": "bool"
        }
      ],
      "name": "createElectorate",
      "outputs": [
        {
          "name": "",
          "type": "uint256"
        }
      ],
      "payable": false,
      "stateMutability": "nonpayable",
      "type": "function"
    },
    {
      "constant": false,
      "inputs": [
        {
          "name": "_electorateID",
          "type": "uint256"
        },
        {
          "name": "_voterToAdd",
          "type": "address"
        }
      ],
      "name": "addToElectorate",
      "outputs": [
        {
          "name": "success",
          "type": "bool"
        }
      ],
      "payable": false,
      "stateMutability": "nonpayable",
      "type": "function"
    },
    {
      "constant": false,
      "inputs": [
        {
          "name": "_electorateID",
          "type": "uint256"
        }
      ],
      "name": "closeElectorate",
      "outputs": [
        {
          "name": "success",
          "type": "bool"
        }
      ],
      "payable": false,
      "stateMutability": "nonpayable",
      "type": "function"
    },
    {
      "constant": false,
      "inputs": [
        {
          "name": "_proposalID",
          "type": "uint256"
        },
        {
          "name": "_hashedBid",
          "type": "bytes32"
        }
      ],
      "name": "conductBlindVote",
      "outputs": [
        {
          "name": "voteClosed",
          "type": "bool"
        }
      ],
      "payable": true,
      "stateMutability": "payable",
      "type": "function"
    },
    {
      "constant": false,
      "inputs": [
        {
          "name": "_proposalID",
          "type": "uint256"
        }
      ],
      "name": "conductNonBlindVote",
      "outputs": [
        {
          "name": "voteClosed",
          "type": "bool"
        }
      ],
      "payable": true,
      "stateMutability": "payable",
      "type": "function"
    },
    {
      "constant": false,
      "inputs": [
        {
          "name": "__propID",
          "type": "uint256"
        }
      ],
      "name": "closeBiddingAtDeadline",
      "outputs": [
        {
          "name": "",
          "type": "bool"
        }
      ],
      "payable": false,
      "stateMutability": "nonpayable",
      "type": "function"
    },
    {
      "constant": true,
      "inputs": [],
      "name": "getKBal",
      "outputs": [
        {
          "name": "_money",
          "type": "uint256"
        }
      ],
      "payable": false,
      "stateMutability": "view",
      "type": "function"
    },
    {
      "constant": false,
      "inputs": [
        {
          "name": "_propID",
          "type": "uint256"
        },
        {
          "name": "_bidReveal",
          "type": "uint256"
        }
      ],
      "name": "revealBid",
      "outputs": [
        {
          "name": "",
          "type": "bool"
        },
        {
          "name": "",
          "type": "uint256"
        }
      ],
      "payable": true,
      "stateMutability": "payable",
      "type": "function"
    },
    {
      "constant": false,
      "inputs": [
        {
          "name": "__propID",
          "type": "uint256"
        }
      ],
      "name": "closeRevealingAtDeadline",
      "outputs": [
        {
          "name": "",
          "type": "bool"
        }
      ],
      "payable": false,
      "stateMutability": "nonpayable",
      "type": "function"
    },
    {
      "constant": false,
      "inputs": [
        {
          "name": "_deposit",
          "type": "uint256"
        }
      ],
      "name": "depositEtherToContract",
      "outputs": [
        {
          "name": "",
          "type": "uint256"
        }
      ],
      "payable": true,
      "stateMutability": "payable",
      "type": "function"
    },
    {
      "constant": false,
      "inputs": [
        {
          "name": "_withdrawal",
          "type": "uint256"
        }
      ],
      "name": "withdrawEtherFromContract",
      "outputs": [
        {
          "name": "",
          "type": "uint256"
        }
      ],
      "payable": true,
      "stateMutability": "payable",
      "type": "function"
    },
    {
      "constant": true,
      "inputs": [],
      "name": "checkEtherSentToContract",
      "outputs": [
        {
          "name": "",
          "type": "uint256"
        }
      ],
      "payable": false,
      "stateMutability": "view",
      "type": "function"
    },
    {
      "constant": true,
      "inputs": [
        {
          "name": "_electorateID",
          "type": "uint256"
        },
        {
          "name": "_index",
          "type": "uint256"
        }
      ],
      "name": "electorateMemberGetter",
      "outputs": [
        {
          "name": "",
          "type": "address[]"
        },
        {
          "name": "",
          "type": "address"
        }
      ],
      "payable": false,
      "stateMutability": "view",
      "type": "function"
    },
    {
      "constant": true,
      "inputs": [
        {
          "name": "_electorateID",
          "type": "uint256"
        }
      ],
      "name": "panelProposalsGetter",
      "outputs": [
        {
          "name": "",
          "type": "uint256[]"
        }
      ],
      "payable": false,
      "stateMutability": "view",
      "type": "function"
    }
  ],
  "bytecode": "0x608060405234801561001057600080fd5b50614326806100206000396000f300608060405260043610610180576000357c0100000000000000000000000000000000000000000000000000000000900463ffffffff1680630dd3cab4146101cf57806314e6b920146101fa578063291d16361461028357806332b0ba73146102e8578063386ab0101461032d5780633ce5c7db146103af57806346581e9a146103f057806347d77930146104515780634a176ffb1461055557806353c4d37214610606578063558afb7e1461065d5780635746279e146106a25780635e36aca2146106da578063615417d514610720578063676f5b61146107615780637a935370146107b85780639301c4bf14610801578063a024bc7e14610835578063a0b57d531461088c578063a12645c7146108d1578063a48139c614610936578063a5ab9b65146109f5578063ae05377d14610a4c578063af6e0a9114610a8d578063b90bbe4114610ac1578063c6311e3f14610aec578063dc18fc5c14610c1a578063e9aec99014610c71578063ed4de8b514610cbc578063fb3b580514610d1d575b34600560003373ffffffffffffffffffffffffffffffffffffffff1673ffffffffffffffffffffffffffffffffffffffff16815260200190815260200160002060008282540192505081905550005b3480156101db57600080fd5b506101e4610d80565b6040518082815260200191505060405180910390f35b34801561020657600080fd5b5061026d600480360381019080803590602001908201803590602001908080601f0160208091040260200160405190810160405280939291908181526020018383808284378201915050505050509192919290803515159060200190929190505050610e22565b6040518082815260200191505060405180910390f35b34801561028f57600080fd5b506102ce60048036038101908080359060200190929190803573ffffffffffffffffffffffffffffffffffffffff16906020019092919050505061108f565b604051808215151515815260200191505060405180910390f35b3480156102f457600080fd5b5061031360048036038101908080359060200190929190505050611273565b604051808215151515815260200191505060405180910390f35b34801561033957600080fd5b506103586004803603810190808035906020019092919050505061127a565b6040518080602001828103825283818151815260200191508051906020019060200280838360005b8381101561039b578082015181840152602081019050610380565b505050509050019250505060405180910390f35b3480156103bb57600080fd5b506103da600480360381019080803590602001909291905050506112e5565b6040518082815260200191505060405180910390f35b3480156103fc57600080fd5b5061043b600480360381019080803573ffffffffffffffffffffffffffffffffffffffff169060200190929190803590602001909291905050506112fd565b6040518082815260200191505060405180910390f35b34801561045d57600080fd5b5061047c6004803603810190808035906020019092919050505061132d565b604051808060200188151515158152602001871515151581526020018673ffffffffffffffffffffffffffffffffffffffff1673ffffffffffffffffffffffffffffffffffffffff168152602001858152602001848152602001838152602001828103825289818151815260200191508051906020019080838360005b838110156105145780820151818401526020810190506104f9565b50505050905090810190601f1680156105415780820380516001836020036101000a031916815260200191505b509850505050505050505060405180910390f35b34801561056157600080fd5b50610604600480360381019080803590602001908201803590602001908080601f016020809104026020016040519081016040528093929190818152602001838380828437820191505050505050919291929080359060200190929190803590602001909291908035906020019092919080359060200190929190803573ffffffffffffffffffffffffffffffffffffffff169060200190929190505050611450565b005b34801561061257600080fd5b50610647600480360381019080803573ffffffffffffffffffffffffffffffffffffffff16906020019092919050505061170e565b6040518082815260200191505060405180910390f35b34801561066957600080fd5b5061068860048036038101908080359060200190929190505050611726565b604051808215151515815260200191505060405180910390f35b6106c0600480360381019080803590602001909291905050506117ec565b604051808215151515815260200191505060405180910390f35b610706600480360381019080803590602001909291908035600019169060200190929190505050611b50565b604051808215151515815260200191505060405180910390f35b34801561072c57600080fd5b5061074b600480360381019080803590602001909291905050506121aa565b6040518082815260200191505060405180910390f35b34801561076d57600080fd5b506107a2600480360381019080803573ffffffffffffffffffffffffffffffffffffffff1690602001909291905050506121c2565b6040518082815260200191505060405180910390f35b6107e060048036038101908080359060200190929190803590602001909291905050506121da565b60405180831515151581526020018281526020019250505060405180910390f35b61081f60048036038101908080359060200190929190505050612731565b6040518082815260200191505060405180910390f35b34801561084157600080fd5b50610876600480360381019080803573ffffffffffffffffffffffffffffffffffffffff1690602001909291905050506127a6565b6040518082815260200191505060405180910390f35b34801561089857600080fd5b506108b7600480360381019080803590602001909291905050506127be565b604051808215151515815260200191505060405180910390f35b3480156108dd57600080fd5b5061091c60048036038101908080359060200190929190803573ffffffffffffffffffffffffffffffffffffffff1690602001909291905050506127c5565b604051808215151515815260200191505060405180910390f35b34801561094257600080fd5b5061096b60048036038101908080359060200190929190803590602001909291905050506127f4565b60405180806020018373ffffffffffffffffffffffffffffffffffffffff1673ffffffffffffffffffffffffffffffffffffffff168152602001828103825284818151815260200191508051906020019060200280838360005b838110156109e05780820151818401526020810190506109c5565b50505050905001935050505060405180910390f35b348015610a0157600080fd5b50610a36600480360381019080803573ffffffffffffffffffffffffffffffffffffffff169060200190929190505050612902565b6040518082815260200191505060405180910390f35b348015610a5857600080fd5b50610a776004803603810190808035906020019092919050505061291a565b6040518082815260200191505060405180910390f35b610aab60048036038101908080359060200190929190505050612932565b6040518082815260200191505060405180910390f35b348015610acd57600080fd5b50610ad6612a9e565b6040518082815260200191505060405180910390f35b348015610af857600080fd5b50610b1760048036038101908080359060200190929190505050612aea565b60405180806020018e81526020018d81526020018c81526020018b81526020018a815260200189815260200188815260200187815260200186815260200185151515158152602001841515151581526020018373ffffffffffffffffffffffffffffffffffffffff1673ffffffffffffffffffffffffffffffffffffffff16815260200182810382528f818151815260200191508051906020019080838360005b83811015610bd3578082015181840152602081019050610bb8565b50505050905090810190601f168015610c005780820380516001836020036101000a031916815260200191505b509e50505050505050505050505050505060405180910390f35b348015610c2657600080fd5b50610c5b600480360381019080803573ffffffffffffffffffffffffffffffffffffffff169060200190929190505050612c31565b6040518082815260200191505060405180910390f35b348015610c7d57600080fd5b50610ca66004803603810190808035906020019092919080359060200190929190505050612c49565b6040518082815260200191505060405180910390f35b348015610cc857600080fd5b50610d0760048036038101908080359060200190929190803573ffffffffffffffffffffffffffffffffffffffff169060200190929190505050612c79565b6040518082815260200191505060405180910390f35b348015610d2957600080fd5b50610d5e600480360381019080803573ffffffffffffffffffffffffffffffffffffffff169060200190929190505050612c9e565b604051808263ffffffff1663ffffffff16815260200191505060405180910390f35b600073__VCGLib1_______________________________636f9fb98a6040518163ffffffff167c010000000000000000000000000000000000000000000000000000000002815260040160206040518083038186803b158015610de257600080fd5b505af4158015610df6573d6000803e3d6000fd5b505050506040513d6020811015610e0c57600080fd5b8101908080519060200190929190505050905090565b6000610e2c6140a5565b8381600001819052508281604001901515908115158152505033816060019073ffffffffffffffffffffffffffffffffffffffff16908173ffffffffffffffffffffffffffffffffffffffff16815250506000604051908082528060200260200182016040528015610ead5781602001602082028038833980820191505090505b50816080018190525060008160e0018181525050600081908060018154018082558091505090600182039060005260206000209060070201600090919290919091506000820151816000019080519060200190610f0b929190614105565b5060208201518160010160006101000a81548160ff02191690831515021790555060408201518160010160016101000a81548160ff02191690831515021790555060608201518160010160026101000a81548173ffffffffffffffffffffffffffffffffffffffff021916908373ffffffffffffffffffffffffffffffffffffffff1602179055506080820151816002019080519060200190610faf929190614185565b5060a0820151816004015560c0820151816005015560e082015181600601555050507f9958e9533741a95b8b0fa0a3f7d1220a58693935aacb988582d90cca6fd94265846001600080549050036040518080602001838152602001828103825284818151815260200191508051906020019080838360005b83811015611042578082015181840152602081019050611027565b50505050905090810190601f16801561106f5780820380516001836020036101000a031916815260200191505b50935050505060405180910390a160016000805490500391505092915050565b6000806000848154811015156110a157fe5b90600052602060002090600702019050600115158160010160019054906101000a900460ff161515141561112e573373ffffffffffffffffffffffffffffffffffffffff168160010160029054906101000a900473ffffffffffffffffffffffffffffffffffffffff1673ffffffffffffffffffffffffffffffffffffffff1614151561112d57600080fd5b5b600015158160030160008573ffffffffffffffffffffffffffffffffffffffff1673ffffffffffffffffffffffffffffffffffffffff16815260200190815260200160002060009054906101000a900460ff16151514151561118f57600080fd5b806002018390806001815401808255809150509060018203906000526020600020016000909192909190916101000a81548173ffffffffffffffffffffffffffffffffffffffff021916908373ffffffffffffffffffffffffffffffffffffffff1602179055505060018160030160008573ffffffffffffffffffffffffffffffffffffffff1673ffffffffffffffffffffffffffffffffffffffff16815260200190815260200160002060006101000a81548160ff0219169083151502179055508060060160008154809291906001019190505550600191508191505092915050565b6000919050565b6060600e60008381526020019081526020016000208054806020026020016040519081016040528092919081815260200182805480156112d957602002820191906000526020600020905b8154815260200190600101908083116112c5575b50505050509050919050565b60036020528060005260406000206000915090505481565b600d6020528160005260406000208181548110151561131857fe5b90600052602060002001600091509150505481565b60008181548110151561133c57fe5b9060005260206000209060070201600091509050806000018054600181600116156101000203166002900480601f0160208091040260200160405190810160405280929190818152602001828054600181600116156101000203166002900480156113e85780601f106113bd576101008083540402835291602001916113e8565b820191906000526020600020905b8154815290600101906020018083116113cb57829003601f168201915b5050505050908060010160009054906101000a900460ff16908060010160019054906101000a900460ff16908060010160029054906101000a900473ffffffffffffffffffffffffffffffffffffffff16908060040154908060050154908060060154905087565b61145861420f565b60008782600001819052506114748766038d7ea4c68000612cc1565b826040018181525050858260200181815250508282610180019073ffffffffffffffffffffffffffffffffffffffff16908173ffffffffffffffffffffffffffffffffffffffff1681525050428260e001818152505084826101000181815250508382610120018181525050620151806114ee8587612cfc565b111515611589576040517f08c379a000000000000000000000000000000000000000000000000000000000815260040180806020018281038252603d8152602001807f52657665616c20646561646c696e65206d757374206265206174206c6561737481526020017f20323420686f7572732061667465722062696420646561646c696e652e00000081525060400191505060405180910390fd5b6001829080600181540180825580915050906001820390600052602060002090600f02016000909192909190915060008201518160000190805190602001906115d3929190614105565b506020820151816001015560408201518160020155606082015181600301556080820151816004015560a0820151816005015560c0820151816006015560e082015181600701556101008201518160080155610120820151816009015561014082015181600e0160006101000a81548160ff02191690831515021790555061016082015181600e0160016101000a81548160ff02191690831515021790555061018082015181600e0160026101000a81548173ffffffffffffffffffffffffffffffffffffffff021916908373ffffffffffffffffffffffffffffffffffffffff16021790555050505060018080549050039050600e60008781526020019081526020016000208190806001815401808255809150509060018203906000526020600020016000909192909190915055505050505050505050565b60096020528060005260406000206000915090505481565b60008060008381548110151561173857fe5b90600052602060002090600702019050600115158160010160019054906101000a900460ff16151514156117c5573373ffffffffffffffffffffffffffffffffffffffff168160010160029054906101000a900473ffffffffffffffffffffffffffffffffffffffff1673ffffffffffffffffffffffffffffffffffffffff161415156117c457600080fd5b5b60018160010160006101000a81548160ff0219169083151502179055506001915050919050565b60008060008060008033945086935034925060018481548110151561180d57fe5b90600052602060002090600f020160010154915060008281548110151561183057fe5b90600052602060002090600702016006015490506001151560008381548110151561185757fe5b906000526020600020906007020160030160008773ffffffffffffffffffffffffffffffffffffffff1673ffffffffffffffffffffffffffffffffffffffff16815260200190815260200160002060009054906101000a900460ff1615151415156118c157600080fd5b600115156000838154811015156118d457fe5b906000526020600020906007020160010160009054906101000a900460ff16151514151561190157600080fd5b6000151560018581548110151561191457fe5b90600052602060002090600f0201600a0160008773ffffffffffffffffffffffffffffffffffffffff1673ffffffffffffffffffffffffffffffffffffffff16815260200190815260200160002060009054906101000a900460ff16151514151561197e57600080fd5b6001808581548110151561198e57fe5b90600052602060002090600f0201600a0160008773ffffffffffffffffffffffffffffffffffffffff1673ffffffffffffffffffffffffffffffffffffffff16815260200190815260200160002060006101000a81548160ff021916908315150217905550600184815481101515611a0257fe5b90600052602060002090600f02016006016000815480929190600101919050555082600185815481101515611a3357fe5b90600052602060002090600f0201600c0160003373ffffffffffffffffffffffffffffffffffffffff1673ffffffffffffffffffffffffffffffffffffffff1681526020019081526020016000206000828254019250508190555082600360008681526020019081526020016000206000828254019250508190555082600560003373ffffffffffffffffffffffffffffffffffffffff1673ffffffffffffffffffffffffffffffffffffffff1681526020019081526020016000206000828254019250508190555080600185815481101515611b0c57fe5b90600052602060002090600f0201600601541415611b4157611b2d84612d15565b50611b3784612d90565b5060019550611b46565b600095505b5050505050919050565b6000806000806000339350600187815481101515611b6a57fe5b90600052602060002090600f0201600101549250600083815481101515611b8d57fe5b9060005260206000209060070201600601549150611bcb600188815481101515611bb357fe5b90600052602060002090600f02016002015483612f93565b905060011515600084815481101515611be057fe5b906000526020600020906007020160030160008673ffffffffffffffffffffffffffffffffffffffff1673ffffffffffffffffffffffffffffffffffffffff16815260200190815260200160002060009054906101000a900460ff161515141515611cd9576040517f08c379a00000000000000000000000000000000000000000000000000000000081526004018080602001828103825260238152602001807f55736572206d75737420626520612047726f7570204d656d62657220746f206281526020017f69642e000000000000000000000000000000000000000000000000000000000081525060400191505060405180910390fd5b60011515600084815481101515611cec57fe5b906000526020600020906007020160010160009054906101000a900460ff161515141515611da8576040517f08c379a00000000000000000000000000000000000000000000000000000000081526004018080602001828103825260338152602001807f47726f7570206d75737420626520636c6f736564206265666f7265206269646481526020017f696e67206d61792074616b6520706c6163652e0000000000000000000000000081525060400191505060405180910390fd5b60001515600188815481101515611dbb57fe5b90600052602060002090600f0201600a0160008673ffffffffffffffffffffffffffffffffffffffff1673ffffffffffffffffffffffffffffffffffffffff16815260200190815260200160002060009054906101000a900460ff161515141515611eb4576040517f08c379a00000000000000000000000000000000000000000000000000000000081526004018080602001828103825260228152602001807f5573657220616c726561647920626964206f6e20746869732050726f706f736181526020017f6c2e00000000000000000000000000000000000000000000000000000000000081525060400191505060405180910390fd5b80600560003373ffffffffffffffffffffffffffffffffffffffff1673ffffffffffffffffffffffffffffffffffffffff1681526020019081526020016000205410151515611fdd576040517f08c379a000000000000000000000000000000000000000000000000000000000815260040180806020018281038252606f8152602001807f55736572206d757374207374616b6520746865202766616972272076616c756581526020017f206f66207468652050726f706f73616c20746f2074686520636f6e747261637481526020017f202870726f706f73616c20636f73742f67726f7570206d656d6265727329206981526020017f6e206f7264657220746f206269642e000000000000000000000000000000000081525060800191505060405180910390fd5b60018088815481101515611fed57fe5b90600052602060002090600f0201600a0160008673ffffffffffffffffffffffffffffffffffffffff1673ffffffffffffffffffffffffffffffffffffffff16815260200190815260200160002060006101000a81548160ff02191690831515021790555060018781548110151561206157fe5b90600052602060002090600f0201600601600081548092919060010191905055508560018881548110151561209257fe5b90600052602060002090600f0201600d0160008673ffffffffffffffffffffffffffffffffffffffff1673ffffffffffffffffffffffffffffffffffffffff1681526020019081526020016000208160001916905550600a60008573ffffffffffffffffffffffffffffffffffffffff1673ffffffffffffffffffffffffffffffffffffffff168152602001908152602001600020600081819054906101000a900463ffffffff168092919060010191906101000a81548163ffffffff021916908363ffffffff160217905550508160018881548110151561217057fe5b90600052602060002090600f020160060154141561219b5761219187612d15565b50600194506121a0565b600094505b5050505092915050565b60026020528060005260406000206000915090505481565b60056020528060005260406000206000915090505481565b6000806001848154811015156121ec57fe5b90600052602060002090600f0201600d0160003373ffffffffffffffffffffffffffffffffffffffff1673ffffffffffffffffffffffffffffffffffffffff168152602001908152602001600020546000191683604051602001808281526020019150506040516020818303038152906040526040518082805190602001908083835b602083101515612294578051825260208201915060208101905060208303925061226f565b6001836020036101000a038019825116818451168082178552505050505050905001915050604051809103902060001916141515612360576040517f08c379a000000000000000000000000000000000000000000000000000000000815260040180806020018281038252603b8152602001807f546869732062696420646f6573206e6f74206d6174636820796f757220626c6981526020017f6e64206269642e2020596f75206d61792074727920616761696e2e000000000081525060400191505060405180910390fd5b6000151560018581548110151561237357fe5b90600052602060002090600f0201600b0160003373ffffffffffffffffffffffffffffffffffffffff1673ffffffffffffffffffffffffffffffffffffffff16815260200190815260200160002060009054906101000a900460ff16151514151561246c576040517f08c379a000000000000000000000000000000000000000000000000000000000815260040180806020018281038252603a8152602001807f596f757220626c696e6420626964206f6e20746869732070726f706f73616c2081526020017f68617320616c7265616479206265656e2072657665616c65642e00000000000081525060400191505060405180910390fd5b82600560003373ffffffffffffffffffffffffffffffffffffffff1673ffffffffffffffffffffffffffffffffffffffff1681526020019081526020016000205410151515612595576040517f08c379a000000000000000000000000000000000000000000000000000000000815260040180806020018281038252607e8152602001807f596f75206d6179206e6f7420626964206d6f7265204574686572207468616e2081526020017f796f752068617665206465706f73697465642e20506c65617365206465706f7381526020017f6974206164646974696f6e616c20457468657220746f2074686520636f6e747281526020017f6163742c20616e64207468656e2072657665616c20796f7572204269642e000081525060800191505060405180910390fd5b6125a68366038d7ea4c68000612cc1565b6001858154811015156125b557fe5b90600052602060002090600f0201600c0160003373ffffffffffffffffffffffffffffffffffffffff1673ffffffffffffffffffffffffffffffffffffffff168152602001908152602001600020600082825401925050819055506126218366038d7ea4c68000612cc1565b6003600086815260200190815260200160002060008282540192505081905550600460008581526020019081526020016000206000815480929190600101919050555060018481548110151561267357fe5b90600052602060002090600f020160060154600460008681526020019081526020016000205414156126aa576126a884612d90565b505b600a60003373ffffffffffffffffffffffffffffffffffffffff1673ffffffffffffffffffffffffffffffffffffffff168152602001908152602001600020600081819054906101000a900463ffffffff16809291906001900391906101000a81548163ffffffff021916908363ffffffff16021790555050600184915091509250929050565b60006127448266038d7ea4c68000612cc1565b3414151561275157600080fd5b34600560003373ffffffffffffffffffffffffffffffffffffffff1673ffffffffffffffffffffffffffffffffffffffff16815260200190815260200160002060008282540192505081905550349050919050565b60086020528060005260406000206000915090505481565b6000919050565b600b6020528160005260406000206020528060005260406000206000915091509054906101000a900460ff1681565b60606000808481548110151561280657fe5b906000526020600020906007020160020160008581548110151561282657fe5b90600052602060002090600702016002018481548110151561284457fe5b9060005260206000200160009054906101000a900473ffffffffffffffffffffffffffffffffffffffff16818054806020026020016040519081016040528092919081815260200182805480156128f057602002820191906000526020600020905b8160009054906101000a900473ffffffffffffffffffffffffffffffffffffffff1673ffffffffffffffffffffffffffffffffffffffff16815260200190600101908083116128a6575b50505050509150915091509250929050565b60076020528060005260406000206000915090505481565b60046020528060005260406000206000915090505481565b600080600a60003373ffffffffffffffffffffffffffffffffffffffff1673ffffffffffffffffffffffffffffffffffffffff16815260200190815260200160002060009054906101000a900463ffffffff1663ffffffff1614151561299757600080fd5b600560003373ffffffffffffffffffffffffffffffffffffffff1673ffffffffffffffffffffffffffffffffffffffff1681526020019081526020016000205482111515156129e557600080fd5b6129f68266038d7ea4c68000612cc1565b600560003373ffffffffffffffffffffffffffffffffffffffff1673ffffffffffffffffffffffffffffffffffffffff168152602001908152602001600020600082825403925050819055503373ffffffffffffffffffffffffffffffffffffffff166108fc612a6d8466038d7ea4c68000612cc1565b9081150290604051600060405180830381858888f19350505050158015612a98573d6000803e3d6000fd5b50919050565b600080600560003373ffffffffffffffffffffffffffffffffffffffff1673ffffffffffffffffffffffffffffffffffffffff1681526020019081526020016000205490508091505090565b600181815481101515612af957fe5b90600052602060002090600f0201600091509050806000018054600181600116156101000203166002900480601f016020809104026020016040519081016040528092919081815260200182805460018160011615610100020316600290048015612ba55780601f10612b7a57610100808354040283529160200191612ba5565b820191906000526020600020905b815481529060010190602001808311612b8857829003601f168201915b50505050509080600101549080600201549080600301549080600401549080600501549080600601549080600701549080600801549080600901549080600e0160009054906101000a900460ff169080600e0160019054906101000a900460ff169080600e0160029054906101000a900473ffffffffffffffffffffffffffffffffffffffff1690508d565b60066020528060005260406000206000915090505481565b600e60205281600052604060002081815481101515612c6457fe5b90600052602060002001600091509150505481565b600c602052816000526040600020602052806000526040600020600091509150505481565b600a6020528060005260406000206000915054906101000a900463ffffffff1681565b6000806000841415612cd65760009150612cf5565b8284029050828482811515612ce757fe5b04141515612cf157fe5b8091505b5092915050565b6000828211151515612d0a57fe5b818303905092915050565b6000612d61600183815481101515612d2957fe5b90600052602060002090600f020160020154600184815481101515612d4a57fe5b90600052602060002090600f020160060154612f93565b905080600183815481101515612d7357fe5b90600052602060002090600f020160030181905550809050919050565b600080600183815481101515612da257fe5b90600052602060002090600f0201600e0160029054906101000a900473ffffffffffffffffffffffffffffffffffffffff169050600183815481101515612de557fe5b90600052602060002090600f0201600201546003600085815260200190815260200160002054101515612f495760018084815481101515612e2257fe5b90600052602060002090600f0201600e0160006101000a81548160ff02191690831515021790555060036000848152602001908152602001600020543073ffffffffffffffffffffffffffffffffffffffff1631101515612ee9578073ffffffffffffffffffffffffffffffffffffffff166108fc600185815481101515612ea657fe5b90600052602060002090600f0201600201549081150290604051600060405180830381858888f19350505050158015612ee3573d6000803e3d6000fd5b50612f44565b8073ffffffffffffffffffffffffffffffffffffffff166108fc60036000868152602001908152602001600020549081150290604051600060405180830381858888f19350505050158015612f42573d6000803e3d6000fd5b505b612f83565b6000600184815481101515612f5a57fe5b90600052602060002090600f0201600e0160006101000a81548160ff0219169083151502179055505b612f8c83612fae565b5050919050565b6000808284811515612fa157fe5b0490508091505092915050565b6000806000806000600186815481101515612fc557fe5b90600052602060002090600f0201600101549350600084815481101515612fe857fe5b9060005260206000209060070201600201805490509250600091505b828210156130fd5760008481548110151561301b57fe5b90600052602060002090600702016002018281548110151561303957fe5b9060005260206000200160009054906101000a900473ffffffffffffffffffffffffffffffffffffffff169050600160008581548110151561307757fe5b906000526020600020906007020160030160008373ffffffffffffffffffffffffffffffffffffffff1673ffffffffffffffffffffffffffffffffffffffff16815260200190815260200160002060006101000a81548160ff0219169083151502179055156130f0576130ea8682613106565b50505050505b8180600101925050613004565b50505050919050565b600080600080600080600080600080600060018d81548110151561312657fe5b90600052602060002090600f0201955085600c0160008d73ffffffffffffffffffffffffffffffffffffffff1673ffffffffffffffffffffffffffffffffffffffff168152602001908152602001600020549450600360008e81526020019081526020016000205493508560020154858503119250856002015486600301548686030111915085600301548511995060008660030154141515156131c957600080fd5b60001515600b60008f815260200190815260200160002060008e73ffffffffffffffffffffffffffffffffffffffff1673ffffffffffffffffffffffffffffffffffffffff16815260200190815260200160002060009054906101000a900460ff16151514151561323957600080fd5b6001151586600e0160009054906101000a900460ff161515148015613262575060001515831515145b80156132725750600115158a1515145b1561328b5760019a506132858d8d613817565b5061378d565b6001151586600e0160009054906101000a900460ff1615151480156132b4575060001515831515145b80156132c45750600015158a1515145b156134c65760019a50600560008d73ffffffffffffffffffffffffffffffffffffffff1673ffffffffffffffffffffffffffffffffffffffff168152602001908152602001600020549050600099508560030154811015156133c7578560030154600560008e73ffffffffffffffffffffffffffffffffffffffff1673ffffffffffffffffffffffffffffffffffffffff168152602001908152602001600020600082825403925050819055508560030154600860008e73ffffffffffffffffffffffffffffffffffffffff1673ffffffffffffffffffffffffffffffffffffffff168152602001908152602001600020600082825401925050819055506134c1565b85600301548110156134c0576133e1866003015486612cfc565b600960008e73ffffffffffffffffffffffffffffffffffffffff1673ffffffffffffffffffffffffffffffffffffffff1681526020019081526020016000206000828254019250508190555080600860008e73ffffffffffffffffffffffffffffffffffffffff1673ffffffffffffffffffffffffffffffffffffffff168152602001908152602001600020600082825401925050819055506000600560008e73ffffffffffffffffffffffffffffffffffffffff1673ffffffffffffffffffffffffffffffffffffffff168152602001908152602001600020819055505b5b61378c565b6000151586600e0160009054906101000a900460ff1615151480156134ef575060011515821515145b156135095760019a506135028d8d613d89565b505061378b565b6000151586600e0160009054906101000a900460ff161515148015613532575060001515821515145b156135405760009a5061378a565b6001151586600e0160009054906101000a900460ff161515148015613569575060011515831515145b80156135795750600115158a1515145b156136295760009a508560030154600860008e73ffffffffffffffffffffffffffffffffffffffff1673ffffffffffffffffffffffffffffffffffffffff168152602001908152602001600020600082825401925050819055508560030154600560008e73ffffffffffffffffffffffffffffffffffffffff1673ffffffffffffffffffffffffffffffffffffffff16815260200190815260200160002060008282540392505081905550613789565b6001151586600e0160009054906101000a900460ff161515148015613652575060011515831515145b80156136625750600015158a1515145b156137835760009a50613679866003015486612cfc565b8660040160008282540192505081905550613698866003015486612cfc565b600960008e73ffffffffffffffffffffffffffffffffffffffff1673ffffffffffffffffffffffffffffffffffffffff1681526020019081526020016000206000828254019250508190555084600860008e73ffffffffffffffffffffffffffffffffffffffff1673ffffffffffffffffffffffffffffffffffffffff1681526020019081526020016000206000828254019250508190555084600560008e73ffffffffffffffffffffffffffffffffffffffff1673ffffffffffffffffffffffffffffffffffffffff16815260200190815260200160002060008282540392505081905550613788565b60009a505b5b5b5b5b5b6001600b60008f815260200190815260200160002060008e73ffffffffffffffffffffffffffffffffffffffff1673ffffffffffffffffffffffffffffffffffffffff16815260200190815260200160002060006101000a81548160ff0219169083151502179055508a8a84878703889a509a509a509a509a505050505050509295509295909350565b60008060008060008060008060018a81548110151561383257fe5b90600052602060002090600f0201965086600c0160008a73ffffffffffffffffffffffffffffffffffffffff1673ffffffffffffffffffffffffffffffffffffffff168152602001908152602001600020549550600360008b8152602001908152602001600020549450600087600101548154811015156138af57fe5b9060005260206000209060070201600601549350600560008a73ffffffffffffffffffffffffffffffffffffffff1673ffffffffffffffffffffffffffffffffffffffff16815260200190815260200160002054925086600301546001850387870381151561391a57fe5b04101561394b57613944613935886003015460018703612cc1565b61393f8789612cfc565b612cfc565b9150613950565b600091505b6001151587600e0160009054906101000a900460ff16151514151561397457600080fd5b866003015486101580156139955750613991876003015483614087565b8310155b15613a9e57600190506139ac876003015483614087565b600560008b73ffffffffffffffffffffffffffffffffffffffff1673ffffffffffffffffffffffffffffffffffffffff1681526020019081526020016000206000828254039250508190555081600660008b73ffffffffffffffffffffffffffffffffffffffff1673ffffffffffffffffffffffffffffffffffffffff168152602001908152602001600020600082825401925050819055508660030154600860008b73ffffffffffffffffffffffffffffffffffffffff1673ffffffffffffffffffffffffffffffffffffffff16815260200190815260200160002060008282540192505081905550809750613d7c565b86600301548610158015613abe5750613abb876003015483614087565b83105b15613d7b5760019050866003015483101515613c2c578660030154600860008b73ffffffffffffffffffffffffffffffffffffffff1673ffffffffffffffffffffffffffffffffffffffff16815260200190815260200160002060008282540192505081905550613b33838860030154612cfc565b600660008b73ffffffffffffffffffffffffffffffffffffffff1673ffffffffffffffffffffffffffffffffffffffff16815260200190815260200160002060008282540192505081905550613b9682613b91858a60030154612cfc565b612cfc565b600760008b73ffffffffffffffffffffffffffffffffffffffff1673ffffffffffffffffffffffffffffffffffffffff168152602001908152602001600020600082825401925050819055506000600560008b73ffffffffffffffffffffffffffffffffffffffff1673ffffffffffffffffffffffffffffffffffffffff16815260200190815260200160002081905550613d73565b8660030154831015613d725782600860008b73ffffffffffffffffffffffffffffffffffffffff1673ffffffffffffffffffffffffffffffffffffffff16815260200190815260200160002060008282540192505081905550613c93876003015484612cfc565b600960008b73ffffffffffffffffffffffffffffffffffffffff1673ffffffffffffffffffffffffffffffffffffffff1681526020019081526020016000206000828254019250508190555081600760008b73ffffffffffffffffffffffffffffffffffffffff1673ffffffffffffffffffffffffffffffffffffffff168152602001908152602001600020600082825401925050819055506000600560008b73ffffffffffffffffffffffffffffffffffffffff1673ffffffffffffffffffffffffffffffffffffffff168152602001908152602001600020819055505b5b809750613d7c565b5b5050505050505092915050565b600080600080600080600080600080151587600e0160009054906101000a900460ff161515141515613dba57600080fd5b60018b815481101515613dc957fe5b90600052602060002090600f02019650600560008b73ffffffffffffffffffffffffffffffffffffffff1673ffffffffffffffffffffffffffffffffffffffff16815260200190815260200160002054955086600c0160008b73ffffffffffffffffffffffffffffffffffffffff1673ffffffffffffffffffffffffffffffffffffffff168152602001908152602001600020549450600360008c815260200190815260200160002054935060008760010154815481101515613e8857fe5b9060005260206000209060070201600601549250613ebf613ea98587612cfc565b613eba600186038a60030154612cc1565b612cfc565b91508186101515613f73576000905081600560008c73ffffffffffffffffffffffffffffffffffffffff1673ffffffffffffffffffffffffffffffffffffffff1681526020019081526020016000206000828254039250508190555081600660008c73ffffffffffffffffffffffffffffffffffffffff1673ffffffffffffffffffffffffffffffffffffffff16815260200190815260200160002060008282540192505081905550808298509850614079565b85821115614072576000905085600660008c73ffffffffffffffffffffffffffffffffffffffff1673ffffffffffffffffffffffffffffffffffffffff16815260200190815260200160002060008282540192505081905550613fd68287612cfc565b600760008c73ffffffffffffffffffffffffffffffffffffffff1673ffffffffffffffffffffffffffffffffffffffff168152602001908152602001600020600082825401925050819055506000600560008c73ffffffffffffffffffffffffffffffffffffffff1673ffffffffffffffffffffffffffffffffffffffff16815260200190815260200160002081905550808298509850614079565b8082985098505b505050505050509250929050565b600080828401905083811015151561409b57fe5b8091505092915050565b6101006040519081016040528060608152602001600015158152602001600015158152602001600073ffffffffffffffffffffffffffffffffffffffff168152602001606081526020016000815260200160008152602001600081525090565b828054600181600116156101000203166002900490600052602060002090601f016020900481019282601f1061414657805160ff1916838001178555614174565b82800160010185558215614174579182015b82811115614173578251825591602001919060010190614158565b5b5090506141819190614292565b5090565b8280548282559060005260206000209081019282156141fe579160200282015b828111156141fd5782518260006101000a81548173ffffffffffffffffffffffffffffffffffffffff021916908373ffffffffffffffffffffffffffffffffffffffff160217905550916020019190600101906141a5565b5b50905061420b91906142b7565b5090565b6101a06040519081016040528060608152602001600081526020016000815260200160008152602001600081526020016000815260200160008152602001600081526020016000815260200160008152602001600015158152602001600015158152602001600073ffffffffffffffffffffffffffffffffffffffff1681525090565b6142b491905b808211156142b0576000816000905550600101614298565b5090565b90565b6142f791905b808211156142f357600081816101000a81549073ffffffffffffffffffffffffffffffffffffffff0219169055506001016142bd565b5090565b905600a165627a7a723058205286c322b7d71ea934e1726847bb6c6d64be17040037f3e96542298bf52f15030029",
  "source": "pragma solidity ^0.4.18;\n\nimport \"./SafeMath.sol\";\nimport \"./Ownable.sol\";\nimport \"./VCGLib1.sol\";\n\ncontract VCG_operator {\n    using SafeMath for uint256;\n\n        //** STORAGE **//\n\n        //general\n    VCGLib1.Electorate[] public electorateList;\n    VCGLib1.Proposal[] public proposalList;\n        //proposal info\n    mapping (uint256 => uint256) public proposalElectorateMap;\n    mapping (uint256 => uint256) public proposalBidCounter;\n    mapping (uint256 => uint256) public revealedBids;\n        //user info\n    mapping (address => uint256) public postedFunds;\n    mapping (address => uint256) public retainedTax;\n    mapping (address => uint256) public outstandingTax;\n    mapping (address => uint256) public paidDues;\n    mapping (address => uint256) public outstandingDues;\n    mapping (address => uint32) public fundsLockedUnlessZero;\n    mapping (uint256 => mapping(address => bool)) public settleUpRecords;\n        //electorate info\n    mapping (uint256 => mapping (address => uint256)) public noShowCount; //number of noShows that gets you kicked from group\n        //list of pending proposals by address, electorate\n    mapping (address => uint256[]) public addressProposals;\n    mapping (uint256 => uint256[]) public electorateProposals;\n\n\n        //** EVENTS **//\n\n    event electorateCreated (\n        string electorateName,\n        uint256 electorateID\n        );\n\n    event blindBidSubmitted (\n        string electorateName,\n        uint256 electorateID,\n        uint256 proposalID,\n        bytes32 hashedBid\n        );\n\n        //** FUNCTIONS **//\n\n    function createProposal (string _proposalDescription,\n        uint256 _neededAmount,\n        uint256 _electorateID,\n        uint256 _bidDeadline,\n        uint256 _revealDeadline,\n        address _beneficiaryAddress)\n        public {\n\n            VCGLib1.Proposal memory _proposal;\n\n            _proposal.proposalDescription = _proposalDescription;\n            _proposal.neededAmount = SafeMath.mul(_neededAmount, 1000000000000000);\n            _proposal.electorateID = _electorateID;\n            _proposal.beneficiaryAddress = _beneficiaryAddress;\n            _proposal.postedTime = now;\n            _proposal.bidDeadline = _bidDeadline;\n            _proposal.revealDeadline = _revealDeadline;\n\n            require(SafeMath.sub(_revealDeadline, _bidDeadline) > 86400,\n                \"Reveal deadline must be at least 24 hours after bid deadline.\");\n\n            proposalList.push(_proposal);\n\n            uint256 _ID = proposalList.length-1;\n            electorateProposals[_electorateID].push(_ID);\n\n    }\n\n    function createElectorate (string _electorateName,\n        bool _ownedList)\n        public\n        returns (uint256) {\n\n            VCGLib1.Electorate memory _electorate;\n\n            _electorate.electorateName = _electorateName;\n            _electorate.ownedList = _ownedList;\n            _electorate.electorateCreator = msg.sender;\n            _electorate.addressArray = new address[](0);\n            _electorate.memberCount = 0;\n\n\n            electorateList.push(_electorate);\n\n            emit electorateCreated(\n                _electorateName,\n                electorateList.length-1\n            );\n\n            return electorateList.length-1;\n\n    }\n\n    function addToElectorate (uint256 _electorateID,\n        address _voterToAdd)\n        public returns (bool success) {\n\n            VCGLib1.Electorate storage electorate = electorateList[_electorateID];\n\n\n                //throw if sender not required owner of electorate\n\n            if (electorate.ownedList == true) {\n                require(electorate.electorateCreator == msg.sender);\n            }\n                //throw if voter already in electorate\n            require(electorate.membershipCheck[_voterToAdd] == false);\n\n                //add voter\n\n            electorate.addressArray.push(_voterToAdd);\n            electorate.membershipCheck[_voterToAdd] = true;\n            electorate.memberCount++;\n\n            return success = true;\n\n    }\n\n    function closeElectorate (uint256 _electorateID)\n        public returns (bool success) {\n\n            VCGLib1.Electorate storage electorate = electorateList[_electorateID];\n\n            if (electorate.ownedList == true) {\n                require(electorate.electorateCreator == msg.sender);\n            }\n\n            electorate.listComplete = true;\n\n            return true;\n        }\n\n    function conductBlindVote(uint256 _proposalID, bytes32 _hashedBid)\n        public payable returns (bool voteClosed) {\n\n            address voter = msg.sender;\n            uint256 electorateKey = proposalList[_proposalID].electorateID;\n            uint256 wholeElectorate = electorateList[electorateKey].memberCount;\n            uint256 fairVal = SafeMath.div(proposalList[_proposalID].neededAmount, wholeElectorate);\n\n            require(electorateList[electorateKey].membershipCheck[voter] == true,\n                \"User must be a Group Member to bid.\");\n            require(electorateList[electorateKey].listComplete == true,\n                \"Group must be closed before bidding may take place.\");\n            require(proposalList[_proposalID].voted[voter]==false,\n                \"User already bid on this Proposal.\");\n            require(postedFunds[msg.sender] >= fairVal,\n                    \"User must stake the 'fair' value of the Proposal to the contract (proposal cost/group members) in order to bid.\");\n\n            proposalList[_proposalID].voted[voter] = true;\n            proposalList[_proposalID].numberOfVotes ++;\n            proposalList[_proposalID].hashedBid[voter] = _hashedBid;\n\n            //add one to fundsLockedUnlessZero\n            fundsLockedUnlessZero[voter] ++;\n\n            if (proposalList[_proposalID].numberOfVotes == wholeElectorate) {\n                    //call closeVote() function\n                closeVote(_proposalID);\n                return true;\n            } else {\n                return false;\n            }\n\n\n    }\n\n        /*vote function without blinding, for testing*/\n\n    function conductNonBlindVote(uint256 _proposalID)\n        public payable returns (bool voteClosed) {\n\n            address voter = msg.sender;\n            uint256 proposalID = _proposalID;\n            uint256 amountValued = msg.value;\n            uint256 electorateKey = proposalList[proposalID].electorateID;\n            uint256 wholeElectorate = electorateList[electorateKey].memberCount;\n\n            require(electorateList[electorateKey].membershipCheck[voter] == true);\n            require(electorateList[electorateKey].listComplete == true);\n            require(proposalList[proposalID].voted[voter]==false);\n\n            proposalList[proposalID].voted[voter] = true;\n            proposalList[proposalID].numberOfVotes ++;\n            proposalList[proposalID].bid[msg.sender] += amountValued;\n            proposalBidCounter[proposalID] += amountValued;\n            postedFunds[msg.sender] += amountValued;\n\n\n            if (proposalList[proposalID].numberOfVotes == wholeElectorate) {\n                    //call closeVote() function\n                closeVote(proposalID);\n                    //call tallyBids() function\n                tallyBids(proposalID);\n                return true;\n            } else {\n                return false;\n            }\n\n\n    }\n\n    function closeBiddingAtDeadline (uint256 __propID)\n        public returns (bool) {\n        //invoke closeVote function\n        //(thus calculating fairAmount and readying proposal for reveal phase)\n        //when time limit is up\n\n    }\n\n    function closeVote(uint256 _propID)\n        internal returns (uint256 fairAmount) {\n\n            fairAmount = SafeMath.div(proposalList[_propID].neededAmount, proposalList[_propID].numberOfVotes);\n            proposalList[_propID].fairAmount = fairAmount;\n\n            return (fairAmount);\n\n        }\n\n    // function getContractBalance ()\n    //     public constant returns (uint256) {\n    //         return address(this).balance;\n    //     }\n    function getKBal ()\n        public constant returns (uint256 _money) {\n            return VCGLib1.getContractBalance();\n    }\n\n    function revealBid (uint256 _propID, uint256 _bidReveal)\n        public payable returns (bool, uint256) {\n\n            //check hash, not already revealed, deposit >= bid\n            require(keccak256(abi.encodePacked(_bidReveal))\n                == proposalList[_propID].hashedBid[msg.sender],\n                \"This bid does not match your blind bid.  You may try again.\");\n                //NEW!\n            require(proposalList[_propID].revealed[msg.sender] == false,\n                \"Your blind bid on this proposal has already been revealed.\");\n                //NEW!\n            require(postedFunds[msg.sender] >= _bidReveal,\n                \"You may not bid more Ether than you have deposited. Please deposit additional Ether to the contract, and then reveal your Bid.\");\n\n            //tally up bid\n            proposalList[_propID].bid[msg.sender] += (SafeMath.mul(_bidReveal, 1000000000000000));\n            proposalBidCounter[_propID] += (SafeMath.mul(_bidReveal, 1000000000000000));\n            revealedBids[_propID] ++;\n\n            //keep track of total short bid shortfall\n            //in the event tax must be taken from more than one long bidder,\n            //this is the excess above fair that must be collected from long bidders\n            // if (proposalList[_propID].bid[msg.sender] < proposalList[_propID].fairAmount) {\n            //     proposalList[_propID].shortBidShortfallTallier +=\n            //         SafeMath.sub(proposalList[_propID].fairAmount, proposalList[_propID].bid[msg.sender]);\n            //     proposalList[_propID].shortBidderCount ++;\n\n            //     //keep track of longBidderExcess\n            // } else if (proposalList[_propID].bid[msg.sender] > proposalList[_propID].fairAmount) {\n            //     proposalList[_propID].longBidExcessTallier +=\n            //         SafeMath.sub(proposalList[_propID].bid[msg.sender], proposalList[_propID].fairAmount);\n            // }\n\n            //pass to payout if this is the last bid\n            if (revealedBids[_propID] == proposalList[_propID].numberOfVotes) {\n                tallyBids(_propID);\n            } // *!* here, add an 'else' clause resolving if time's up for bid reveals\n\n\n            //reduce fundsLockedUnlessZero by one\n            fundsLockedUnlessZero[msg.sender] --;\n\n            return (true, _propID);\n\n        }\n\n    function closeRevealingAtDeadline (uint256 __propID)\n        public returns (bool) {\n        //invoke tallyBid function\n        //(thus closing/executing the proposal)\n        //when time limit is up (in case not everyone who voted revealed in time)\n\n    }\n\n    function tallyBids (uint256 _propID)\n        internal returns (bool) {\n\n                //vars\n            address beneficiary = proposalList[_propID].beneficiaryAddress;\n\n                //check if passed\n            if (proposalBidCounter[_propID] >= proposalList[_propID].neededAmount) {\n                proposalList[_propID].outcomePassed = true;\n                if (address(this).balance >= proposalBidCounter[_propID]) {\n                    beneficiary.transfer(proposalList[_propID].neededAmount);\n                } else {\n                    beneficiary.transfer(proposalBidCounter[_propID]);\n                }\n            } else {\n                proposalList[_propID].outcomePassed = false;\n            }\n\n            //call settleUpAll\n\n            settleUpAll(_propID);\n\n        }\n\n    function settleUpAll(uint256 _propID)\n        internal returns (bool) {\n\n            //vars\n\n            uint256 electorateKey = proposalList[_propID].electorateID;\n            uint256 wholeElectorate = electorateList[electorateKey].addressArray.length; //recall this may include kicked out members\n\n            //call settleUp for each electorate member\n            for (uint256 i = 0; i<wholeElectorate; i++) {\n                address _address = electorateList[electorateKey].addressArray[i];\n                if (electorateList[electorateKey].membershipCheck[_address] = true) {\n                    settleUp(_propID, _address);\n                }\n            }\n    }\n\n    function settleUp(uint256 _propID, address _settlingAddress)\n        internal returns (bool pivotal, bool exceedsFair, bool pswoutbdr, uint256, uint256) {\n\n\n            //find out what to tax and pay out and execute it\n            VCGLib1.Proposal storage proposal = proposalList[_propID];\n            uint256 settlerBid = proposal.bid[_settlingAddress];\n            uint256 totalBid = proposalBidCounter[_propID];\n            bool passedWithoutBidder = ((totalBid - settlerBid) > proposal.neededAmount);\n            bool passedIfBidderBidFair =\n                ((totalBid - settlerBid + proposal.fairAmount) > proposal.neededAmount);\n            exceedsFair = (settlerBid > proposal.fairAmount);\n\n            //require that proposal has been closed\n            //and hasn't been prior settleup\n            //and hashed bid is correct\n            require(proposal.fairAmount != 0);\n            require(settleUpRecords[_propID][_settlingAddress] == false);\n\n\n                //determine if voter pivotal, send to calculate tax if bid more than fair\n\n            if ((proposal.outcomePassed == true) && (passedWithoutBidder == false)\n                && (exceedsFair == true)) {\n                pivotal = true;\n\n                //postedFunds[_settlingAddress] -= proposal.fairAmount; //reduces balance by retained bid\n                //paidDues[_settlingAddress] += proposal.fairAmount;\n\n                calculatePassTax(_propID, _settlingAddress); //invoke tax function\n\n            } else if ((proposal.outcomePassed == true) && (passedWithoutBidder == false)\n                && (exceedsFair == false)) {\n                pivotal = true;\n\n                    //don't invoke tax function bc no negative externality imposed\n                //paidDues[_settlingAddress] += settlerBid;\n                //outstandingDues[_settlingAddress] += SafeMath.sub(proposal.fairAmount, settlerBid);\n                //postedFunds[_settlingAddress] -= settlerBid; //reduces balance by retained bid\n                //proposal.shortfallTallier += SafeMath.sub(proposal.fairAmount, settlerBid);\n\n                //calculatePassTax(_propID, _settlingAddress);\n                uint256 balance = postedFunds[_settlingAddress];\n\n                exceedsFair = false;\n                if (balance >= proposal.fairAmount) {\n                    postedFunds[_settlingAddress] -= proposal.fairAmount;\n                    paidDues[_settlingAddress] += proposal.fairAmount;\n                } else if (balance < proposal.fairAmount) {\n                    outstandingDues[_settlingAddress] += SafeMath.sub(proposal.fairAmount, settlerBid); //outstandingDues: deficit vs fair, less retained balance\n                    paidDues[_settlingAddress] += balance;\n                    postedFunds[_settlingAddress] = 0;\n                }\n\n            } else if ((proposal.outcomePassed == false) && (passedIfBidderBidFair == true)) {\n                pivotal = true;\n\n                    //invoke tax function\n                calculateFailTax(_propID, _settlingAddress);\n\n            } else if ((proposal.outcomePassed == false) && (passedIfBidderBidFair == false)) {\n\n                pivotal = false;\n               /*auction failed and no single party responsible;\n               no penalty; do nothing, leave funds in K,\n               bidder can now withdraw them*/\n\n\n            } else if (((proposal.outcomePassed == true) && (passedWithoutBidder == true))\n                && ((exceedsFair == true))) {\n                pivotal = false;\n\n                /*do not refund, but bidder can now withdraw balance*/\n                // uint256 refund = SafeMath.sub(settlerBid, proposal.fairAmount);\n                // _settlingAddress.transfer(refund);\n\n                /*!!!!build new function here that divvies pro rata the shortbid shortfall, below\n                and levies tax consisting of part of excess bid!!!*/\n\n                paidDues[_settlingAddress] += proposal.fairAmount;\n                postedFunds[_settlingAddress] -= proposal.fairAmount; //reduces balance by fairAmount\n                //build function that credits excess bid to outstandingTax/Dues and run here\n\n                //voter not pivotal, prop passed, but bid does NOT exceed fair\n                //thus there is a deficit to track\n                //track defict as outstanding tax\n\n            } else if (((proposal.outcomePassed == true) && (passedWithoutBidder == true))\n                && ((exceedsFair == false))) {\n                pivotal = false;\n\n                proposal.shortfallTallier += SafeMath.sub(proposal.fairAmount, settlerBid);\n                    //**eventually make a function that automatically settles outstandingTax\n                    //**when function called\n                    /*tax in this situation should be part of bidder shortfall, not all*/\n\n                outstandingDues[_settlingAddress] += SafeMath.sub(proposal.fairAmount, settlerBid); //currently levies whole shortfall as tax\n                paidDues[_settlingAddress] += settlerBid;\n                postedFunds[_settlingAddress] -= settlerBid; //reduces balance by retained bid\n\n            } else {\n                pivotal = false;\n            }\n\n        //prevent double-call\n        settleUpRecords[_propID][_settlingAddress] = true;\n        return (pivotal, exceedsFair, passedWithoutBidder, totalBid-settlerBid, settlerBid);\n\n\n    }\n\n    function calculateFailTax (uint256 _propID, address _taxee)\n        internal returns (bool, uint256) {\n\n            // check\n        require(proposal.outcomePassed == false);\n\n            //variable setup\n        VCGLib1.Proposal storage proposal = proposalList[_propID];\n        uint256 balance = postedFunds[_taxee];\n        uint256 senderBid = proposal.bid[_taxee];\n        uint256 totalBid = proposalBidCounter[_propID];\n        uint256 wholeElectorate = electorateList[proposal.electorateID].memberCount;\n        uint256 failTax =\n            SafeMath.sub((SafeMath.sub(totalBid, senderBid)), (SafeMath.mul(wholeElectorate-1, proposal.fairAmount)));\n            //int versions, there to avoid sending \"negative\" uint to SafeMath\n        //int256 failTaxInt = int(failTax);\n        //int256 senderBidInt = int(senderBid);\n\n\n                /*user pivotal, prop not passed, bid exceeds failtax\n                retain failtax, return rest of bid\n                record retained*/\n            if (balance >= failTax) {\n\n                bool exceedsFair = false;\n                postedFunds[_taxee] -= failTax; //subtract tax from balance\n                retainedTax[_taxee] += failTax; //record tax\n\n                return (exceedsFair, failTax);\n\n\n                /*user pivotal, prop not passed, and tax exceeds bid\n                retain bid as tax\n                record outstandingTax*/\n            } else if (failTax > balance) {\n\n                exceedsFair = false;\n\n            //6-12: this should simply zero out balance and add tax-balance to outstandingTax\n\n                retainedTax[_taxee] += balance; //retain whole bid\n                outstandingTax[_taxee] += SafeMath.sub(failTax, balance); //debit tax owed over and above bid\n                postedFunds[_taxee] = 0; //zero out\n\n                return (exceedsFair, failTax);\n\n                //this shoud never get called\n            } else {\n\n                return (exceedsFair, failTax);\n\n            }\n\n    }\n\n    function calculatePassTax (uint256 _propID, address _taxee)\n        internal returns (bool) {\n\n            //variable setup\n        VCGLib1.Proposal storage proposal = proposalList[_propID];\n        uint256 senderBid = proposal.bid[_taxee];\n        uint256 totalBid = proposalBidCounter[_propID];\n        uint256 wholeElectorate = electorateList[proposal.electorateID].memberCount;\n        //uint256 excess = SafeMath.sub(senderBid, proposal.fairAmount);\n        uint256 balance = postedFunds[_taxee];\n\n\n        /*handle edge case where fairTimesAllButOne exceeds totalMinusSender*/\n        //calculate tax for passed proposal\n        if ((totalBid-senderBid)/(wholeElectorate-1) < proposal.fairAmount) {\n            uint256 passTax =\n                SafeMath.sub(SafeMath.mul(proposal.fairAmount, wholeElectorate-1), (SafeMath.sub(totalBid, senderBid)));\n        } else {\n            passTax = 0;\n        }\n\n\n            //gut check\n        require (proposal.outcomePassed == true);\n\n                // user pivotal, prop passed, and bid exceeds fair\n            if ((senderBid >= proposal.fairAmount)\n                && (balance >= SafeMath.add(proposal.fairAmount, passTax))) {\n\n                bool exceedsFair = true;\n                postedFunds[_taxee] -= SafeMath.add(proposal.fairAmount, passTax); //decredit balance\n                retainedTax[_taxee] += passTax; //record retained tax\n                paidDues[_taxee] += proposal.fairAmount;\n\n                return (exceedsFair);\n\n            } else if ((senderBid >= proposal.fairAmount)\n                && (balance < SafeMath.add(proposal.fairAmount, passTax))) {\n\n                exceedsFair = true;\n\n                if (balance >= proposal.fairAmount) {\n                    paidDues[_taxee] += proposal.fairAmount;\n                    retainedTax[_taxee] += SafeMath.sub(balance, proposal.fairAmount);\n                    outstandingTax[_taxee] +=\n                      SafeMath.sub(passTax, SafeMath.sub(balance, proposal.fairAmount));\n\n                   postedFunds[_taxee] = 0; //clear out balance\n\n                } else if (balance < proposal.fairAmount) {\n                    paidDues[_taxee] += balance;\n                    outstandingDues[_taxee] += SafeMath.sub(proposal.fairAmount, balance);\n                    outstandingTax[_taxee] += passTax;\n\n                    postedFunds[_taxee] = 0; //clear out balance\n\n                }\n\n                return (exceedsFair);\n            }\n    }\n\n    function depositEtherToContract (uint256 _deposit)\n        public payable returns (uint256) {\n\n            require(msg.value == SafeMath.mul(_deposit, 1000000000000000)); //\n            postedFunds[msg.sender] += msg.value;\n            return msg.value;\n\n        }\n\n    function()\n        public payable {\n\n            postedFunds[msg.sender] += msg.value;\n\n        }\n\n    //     //untested function\n    // function corralDelinquents(uint256 _electorate, bool _boot)\n    //     public returns (address[] delinquents) {\n\n    //         VCGLib1.Electorate storage electorate = electorateList[_electorate];\n    //         //delinquents memory = _delinquents[];\n    //         uint256 wholeElectorate = electorate.addressArray.length;\n\n    //         if (electorate.ownedList = true) {\n    //             require(electorate.electorateCreator == msg.sender,\n    //             \"This function is restricted to the Group Owner.\");\n    //         }\n\n    //         for (uint256 i = 0; i<wholeElectorate; i++) {\n    //             address _address = electorate.addressArray[i];\n    //             if ((electorate.membershipCheck[_address] = true)\n    //                 && (electorate.maxNoShows >= noShowCount[_electorate][_address])) {\n    //                 delinquents[delinquents.length] = _address;\n    //                 if (_boot == true) {\n    //                     bootMember(_electorate, _address);\n    //                 }\n    //             }\n    //         }\n    //         return delinquents;\n    //     }\n\n    //     //untested function\n    // function bootMember(uint256 _electorate, address _member)\n    //     public {\n\n    //         //boot passed _member address:\n    //         electorateList[_electorate].membershipCheck[_member] = false;\n\n    //     }\n\n\n        //withdraw ether from contract\n\n    function withdrawEtherFromContract (uint256 _withdrawal)\n        public payable returns (uint256) {\n\n                //require no pending bid\n            require(fundsLockedUnlessZero[msg.sender] == 0);\n                //require amount withdrawn less than amount deposited\n            require(_withdrawal <= postedFunds[msg.sender]);\n                //remit\n            postedFunds[msg.sender] -= SafeMath.mul(_withdrawal, 1000000000000000);\n            msg.sender.transfer(SafeMath.mul(_withdrawal, 1000000000000000));\n\n        }\n\n        //check storage mapping to see how many Ether the user has posted to the contract\n\n    function checkEtherSentToContract ()\n        public constant returns (uint256) {\n\n            uint256 userFunds = postedFunds[msg.sender];\n            return userFunds;\n\n        }\n\n        ///used in js so keep for now\n\n    function electorateMemberGetter (uint256 _electorateID, uint256 _index)\n        public constant returns (address[], address) {\n            return (electorateList[_electorateID].addressArray,\n                    electorateList[_electorateID].addressArray[_index]);\n        }\n\n    function panelProposalsGetter (uint256 _electorateID)\n        public constant returns (uint256[]) {\n            return (electorateProposals[_electorateID]);\n        }\n\n}\n",
  "sourcePath": "/Users/matthewprewitt/nonomos/contracts/VCG_operator.sol",
  "compiler": {
    "name": "solc",
    "version": "0.4.24+commit.e67f0147.Emscripten.clang"
  },
  "schemaVersion": "2.0.0",
  "updatedAt": "2018-07-11T22:33:59.976Z"
}